{
	"contracts/Counter.sol": {
		"MyContract": {
			"abi": [
				{
					"inputs": [],
					"stateMutability": "nonpayable",
					"type": "constructor"
				},
				{
					"inputs": [
						{
							"internalType": "uint256",
							"name": "_id",
							"type": "uint256"
						},
						{
							"internalType": "string",
							"name": "_title",
							"type": "string"
						},
						{
							"internalType": "string",
							"name": "_author",
							"type": "string"
						}
					],
					"name": "addBook",
					"outputs": [],
					"stateMutability": "nonpayable",
					"type": "function"
				},
				{
					"inputs": [
						{
							"internalType": "uint256",
							"name": "_id",
							"type": "uint256"
						},
						{
							"internalType": "string",
							"name": "_title",
							"type": "string"
						},
						{
							"internalType": "string",
							"name": "_author",
							"type": "string"
						}
					],
					"name": "addMyBook",
					"outputs": [],
					"stateMutability": "nonpayable",
					"type": "function"
				},
				{
					"inputs": [
						{
							"internalType": "uint256",
							"name": "",
							"type": "uint256"
						}
					],
					"name": "books",
					"outputs": [
						{
							"internalType": "string",
							"name": "title",
							"type": "string"
						},
						{
							"internalType": "string",
							"name": "author",
							"type": "string"
						}
					],
					"stateMutability": "view",
					"type": "function"
				},
				{
					"inputs": [
						{
							"internalType": "address",
							"name": "",
							"type": "address"
						},
						{
							"internalType": "uint256",
							"name": "",
							"type": "uint256"
						}
					],
					"name": "myBooks",
					"outputs": [
						{
							"internalType": "string",
							"name": "title",
							"type": "string"
						},
						{
							"internalType": "string",
							"name": "author",
							"type": "string"
						}
					],
					"stateMutability": "view",
					"type": "function"
				},
				{
					"inputs": [
						{
							"internalType": "uint256",
							"name": "",
							"type": "uint256"
						}
					],
					"name": "names",
					"outputs": [
						{
							"internalType": "string",
							"name": "",
							"type": "string"
						}
					],
					"stateMutability": "view",
					"type": "function"
				},
				{
					"inputs": [],
					"name": "owner",
					"outputs": [
						{
							"internalType": "address",
							"name": "",
							"type": "address"
						}
					],
					"stateMutability": "view",
					"type": "function"
				}
			],
			"devdoc": {
				"kind": "dev",
				"methods": {},
				"version": 1
			},
			"evm": {
				"assembly": "    /* \"contracts/Counter.sol\":59:942  contract MyContract{// stores count on blockchain... */\n  mstore(0x40, 0x80)\n    /* \"contracts/Counter.sol\":152:153  0 */\n  0x00\n    /* \"contracts/Counter.sol\":141:153  uint count=0 */\n  0x01\n  sstore\n    /* \"contracts/Counter.sol\":435:537  constructor(){... */\n  callvalue\n  dup1\n  iszero\n  tag_1\n  jumpi\n  0x00\n  dup1\n  revert\ntag_1:\n  pop\n    /* \"contracts/Counter.sol\":463:473  msg.sender */\n  caller\n    /* \"contracts/Counter.sol\":455:460  owner */\n  0x00\n  dup1\n    /* \"contracts/Counter.sol\":455:473  owner = msg.sender */\n  0x0100\n  exp\n  dup2\n  sload\n  dup2\n  0xffffffffffffffffffffffffffffffffffffffff\n  mul\n  not\n  and\n  swap1\n  dup4\n  0xffffffffffffffffffffffffffffffffffffffff\n  and\n  mul\n  or\n  swap1\n  sstore\n  pop\n    /* \"contracts/Counter.sol\":486:502  names[1]='Pesho' */\n  mload(0x40)\n  dup1\n  0x40\n  add\n  0x40\n  mstore\n  dup1\n  0x05\n  dup2\n  mstore\n  0x20\n  add\n  0x506573686f000000000000000000000000000000000000000000000000000000\n  dup2\n  mstore\n  pop\n    /* \"contracts/Counter.sol\":486:491  names */\n  0x02\n    /* \"contracts/Counter.sol\":486:494  names[1] */\n  0x00\n    /* \"contracts/Counter.sol\":492:493  1 */\n  0x01\n    /* \"contracts/Counter.sol\":486:494  names[1] */\n  dup2\n  mstore\n  0x20\n  add\n  swap1\n  dup2\n  mstore\n  0x20\n  add\n  0x00\n  keccak256\n    /* \"contracts/Counter.sol\":486:502  names[1]='Pesho' */\n  swap1\n  dup2\n  tag_4\n  swap2\n  swap1\n  tag_5\n  jump\t// in\ntag_4:\n  pop\n    /* \"contracts/Counter.sol\":513:529  names[2]='Gosho' */\n  mload(0x40)\n  dup1\n  0x40\n  add\n  0x40\n  mstore\n  dup1\n  0x05\n  dup2\n  mstore\n  0x20\n  add\n  0x476f73686f000000000000000000000000000000000000000000000000000000\n  dup2\n  mstore\n  pop\n    /* \"contracts/Counter.sol\":513:518  names */\n  0x02\n    /* \"contracts/Counter.sol\":513:521  names[2] */\n  0x00\n    /* \"contracts/Counter.sol\":519:520  2 */\n  0x02\n    /* \"contracts/Counter.sol\":513:521  names[2] */\n  dup2\n  mstore\n  0x20\n  add\n  swap1\n  dup2\n  mstore\n  0x20\n  add\n  0x00\n  keccak256\n    /* \"contracts/Counter.sol\":513:529  names[2]='Gosho' */\n  swap1\n  dup2\n  tag_6\n  swap2\n  swap1\n  tag_5\n  jump\t// in\ntag_6:\n  pop\n    /* \"contracts/Counter.sol\":59:942  contract MyContract{// stores count on blockchain... */\n  jump(tag_7)\n    /* \"#utility.yul\":7:106   */\ntag_8:\n    /* \"#utility.yul\":59:65   */\n  0x00\n    /* \"#utility.yul\":93:98   */\n  dup2\n    /* \"#utility.yul\":87:99   */\n  mload\n    /* \"#utility.yul\":77:99   */\n  swap1\n  pop\n    /* \"#utility.yul\":7:106   */\n  swap2\n  swap1\n  pop\n  jump\t// out\n    /* \"#utility.yul\":112:292   */\ntag_9:\n    /* \"#utility.yul\":160:237   */\n  0x4e487b7100000000000000000000000000000000000000000000000000000000\n    /* \"#utility.yul\":157:158   */\n  0x00\n    /* \"#utility.yul\":150:238   */\n  mstore\n    /* \"#utility.yul\":257:261   */\n  0x41\n    /* \"#utility.yul\":254:255   */\n  0x04\n    /* \"#utility.yul\":247:262   */\n  mstore\n    /* \"#utility.yul\":281:285   */\n  0x24\n    /* \"#utility.yul\":278:279   */\n  0x00\n    /* \"#utility.yul\":271:286   */\n  revert\n    /* \"#utility.yul\":298:478   */\ntag_10:\n    /* \"#utility.yul\":346:423   */\n  0x4e487b7100000000000000000000000000000000000000000000000000000000\n    /* \"#utility.yul\":343:344   */\n  0x00\n    /* \"#utility.yul\":336:424   */\n  mstore\n    /* \"#utility.yul\":443:447   */\n  0x22\n    /* \"#utility.yul\":440:441   */\n  0x04\n    /* \"#utility.yul\":433:448   */\n  mstore\n    /* \"#utility.yul\":467:471   */\n  0x24\n    /* \"#utility.yul\":464:465   */\n  0x00\n    /* \"#utility.yul\":457:472   */\n  revert\n    /* \"#utility.yul\":484:804   */\ntag_11:\n    /* \"#utility.yul\":528:534   */\n  0x00\n    /* \"#utility.yul\":565:566   */\n  0x02\n    /* \"#utility.yul\":559:563   */\n  dup3\n    /* \"#utility.yul\":555:567   */\n  div\n    /* \"#utility.yul\":545:567   */\n  swap1\n  pop\n    /* \"#utility.yul\":612:613   */\n  0x01\n    /* \"#utility.yul\":606:610   */\n  dup3\n    /* \"#utility.yul\":602:614   */\n  and\n    /* \"#utility.yul\":633:651   */\n  dup1\n    /* \"#utility.yul\":623:704   */\n  tag_33\n  jumpi\n    /* \"#utility.yul\":689:693   */\n  0x7f\n    /* \"#utility.yul\":681:687   */\n  dup3\n    /* \"#utility.yul\":677:694   */\n  and\n    /* \"#utility.yul\":667:694   */\n  swap2\n  pop\n    /* \"#utility.yul\":623:704   */\ntag_33:\n    /* \"#utility.yul\":751:753   */\n  0x20\n    /* \"#utility.yul\":743:749   */\n  dup3\n    /* \"#utility.yul\":740:754   */\n  lt\n    /* \"#utility.yul\":720:738   */\n  dup2\n    /* \"#utility.yul\":717:755   */\n  sub\n    /* \"#utility.yul\":714:798   */\n  tag_34\n  jumpi\n    /* \"#utility.yul\":770:788   */\n  tag_35\n  tag_10\n  jump\t// in\ntag_35:\n    /* \"#utility.yul\":714:798   */\ntag_34:\n    /* \"#utility.yul\":535:804   */\n  pop\n    /* \"#utility.yul\":484:804   */\n  swap2\n  swap1\n  pop\n  jump\t// out\n    /* \"#utility.yul\":810:951   */\ntag_12:\n    /* \"#utility.yul\":859:863   */\n  0x00\n    /* \"#utility.yul\":882:885   */\n  dup2\n    /* \"#utility.yul\":874:885   */\n  swap1\n  pop\n    /* \"#utility.yul\":905:908   */\n  dup2\n    /* \"#utility.yul\":902:903   */\n  0x00\n    /* \"#utility.yul\":895:909   */\n  mstore\n    /* \"#utility.yul\":939:943   */\n  0x20\n    /* \"#utility.yul\":936:937   */\n  0x00\n    /* \"#utility.yul\":926:944   */\n  keccak256\n    /* \"#utility.yul\":918:944   */\n  swap1\n  pop\n    /* \"#utility.yul\":810:951   */\n  swap2\n  swap1\n  pop\n  jump\t// out\n    /* \"#utility.yul\":957:1050   */\ntag_13:\n    /* \"#utility.yul\":994:1000   */\n  0x00\n    /* \"#utility.yul\":1041:1043   */\n  0x20\n    /* \"#utility.yul\":1036:1038   */\n  0x1f\n    /* \"#utility.yul\":1029:1034   */\n  dup4\n    /* \"#utility.yul\":1025:1039   */\n  add\n    /* \"#utility.yul\":1021:1044   */\n  div\n    /* \"#utility.yul\":1011:1044   */\n  swap1\n  pop\n    /* \"#utility.yul\":957:1050   */\n  swap2\n  swap1\n  pop\n  jump\t// out\n    /* \"#utility.yul\":1056:1163   */\ntag_14:\n    /* \"#utility.yul\":1100:1108   */\n  0x00\n    /* \"#utility.yul\":1150:1155   */\n  dup3\n    /* \"#utility.yul\":1144:1148   */\n  dup3\n    /* \"#utility.yul\":1140:1156   */\n  shl\n    /* \"#utility.yul\":1119:1156   */\n  swap1\n  pop\n    /* \"#utility.yul\":1056:1163   */\n  swap3\n  swap2\n  pop\n  pop\n  jump\t// out\n    /* \"#utility.yul\":1169:1562   */\ntag_15:\n    /* \"#utility.yul\":1238:1244   */\n  0x00\n    /* \"#utility.yul\":1288:1289   */\n  0x08\n    /* \"#utility.yul\":1276:1286   */\n  dup4\n    /* \"#utility.yul\":1272:1290   */\n  mul\n    /* \"#utility.yul\":1311:1408   */\n  tag_40\n    /* \"#utility.yul\":1341:1407   */\n  0xffffffffffffffffffffffffffffffffffffffffffffffffffffffffffffffff\n    /* \"#utility.yul\":1330:1339   */\n  dup3\n    /* \"#utility.yul\":1311:1408   */\n  tag_14\n  jump\t// in\ntag_40:\n    /* \"#utility.yul\":1429:1468   */\n  tag_41\n    /* \"#utility.yul\":1459:1467   */\n  dup7\n    /* \"#utility.yul\":1448:1457   */\n  dup4\n    /* \"#utility.yul\":1429:1468   */\n  tag_14\n  jump\t// in\ntag_41:\n    /* \"#utility.yul\":1417:1468   */\n  swap6\n  pop\n    /* \"#utility.yul\":1501:1505   */\n  dup1\n    /* \"#utility.yul\":1497:1506   */\n  not\n    /* \"#utility.yul\":1490:1495   */\n  dup5\n    /* \"#utility.yul\":1486:1507   */\n  and\n    /* \"#utility.yul\":1477:1507   */\n  swap4\n  pop\n    /* \"#utility.yul\":1550:1554   */\n  dup1\n    /* \"#utility.yul\":1540:1548   */\n  dup7\n    /* \"#utility.yul\":1536:1555   */\n  and\n    /* \"#utility.yul\":1529:1534   */\n  dup5\n    /* \"#utility.yul\":1526:1556   */\n  or\n    /* \"#utility.yul\":1516:1556   */\n  swap3\n  pop\n    /* \"#utility.yul\":1245:1562   */\n  pop\n  pop\n    /* \"#utility.yul\":1169:1562   */\n  swap4\n  swap3\n  pop\n  pop\n  pop\n  jump\t// out\n    /* \"#utility.yul\":1568:1645   */\ntag_16:\n    /* \"#utility.yul\":1605:1612   */\n  0x00\n    /* \"#utility.yul\":1634:1639   */\n  dup2\n    /* \"#utility.yul\":1623:1639   */\n  swap1\n  pop\n    /* \"#utility.yul\":1568:1645   */\n  swap2\n  swap1\n  pop\n  jump\t// out\n    /* \"#utility.yul\":1651:1711   */\ntag_17:\n    /* \"#utility.yul\":1679:1682   */\n  0x00\n    /* \"#utility.yul\":1700:1705   */\n  dup2\n    /* \"#utility.yul\":1693:1705   */\n  swap1\n  pop\n    /* \"#utility.yul\":1651:1711   */\n  swap2\n  swap1\n  pop\n  jump\t// out\n    /* \"#utility.yul\":1717:1859   */\ntag_18:\n    /* \"#utility.yul\":1767:1776   */\n  0x00\n    /* \"#utility.yul\":1800:1853   */\n  tag_45\n    /* \"#utility.yul\":1818:1852   */\n  tag_46\n    /* \"#utility.yul\":1827:1851   */\n  tag_47\n    /* \"#utility.yul\":1845:1850   */\n  dup5\n    /* \"#utility.yul\":1827:1851   */\n  tag_16\n  jump\t// in\ntag_47:\n    /* \"#utility.yul\":1818:1852   */\n  tag_17\n  jump\t// in\ntag_46:\n    /* \"#utility.yul\":1800:1853   */\n  tag_16\n  jump\t// in\ntag_45:\n    /* \"#utility.yul\":1787:1853   */\n  swap1\n  pop\n    /* \"#utility.yul\":1717:1859   */\n  swap2\n  swap1\n  pop\n  jump\t// out\n    /* \"#utility.yul\":1865:1940   */\ntag_19:\n    /* \"#utility.yul\":1908:1911   */\n  0x00\n    /* \"#utility.yul\":1929:1934   */\n  dup2\n    /* \"#utility.yul\":1922:1934   */\n  swap1\n  pop\n    /* \"#utility.yul\":1865:1940   */\n  swap2\n  swap1\n  pop\n  jump\t// out\n    /* \"#utility.yul\":1946:2215   */\ntag_20:\n    /* \"#utility.yul\":2056:2095   */\n  tag_50\n    /* \"#utility.yul\":2087:2094   */\n  dup4\n    /* \"#utility.yul\":2056:2095   */\n  tag_18\n  jump\t// in\ntag_50:\n    /* \"#utility.yul\":2117:2208   */\n  tag_51\n    /* \"#utility.yul\":2166:2207   */\n  tag_52\n    /* \"#utility.yul\":2190:2206   */\n  dup3\n    /* \"#utility.yul\":2166:2207   */\n  tag_19\n  jump\t// in\ntag_52:\n    /* \"#utility.yul\":2158:2164   */\n  dup5\n    /* \"#utility.yul\":2151:2155   */\n  dup5\n    /* \"#utility.yul\":2145:2156   */\n  sload\n    /* \"#utility.yul\":2117:2208   */\n  tag_15\n  jump\t// in\ntag_51:\n    /* \"#utility.yul\":2111:2115   */\n  dup3\n    /* \"#utility.yul\":2104:2209   */\n  sstore\n    /* \"#utility.yul\":2022:2215   */\n  pop\n    /* \"#utility.yul\":1946:2215   */\n  pop\n  pop\n  pop\n  jump\t// out\n    /* \"#utility.yul\":2221:2294   */\ntag_21:\n    /* \"#utility.yul\":2266:2269   */\n  0x00\n    /* \"#utility.yul\":2221:2294   */\n  swap1\n  jump\t// out\n    /* \"#utility.yul\":2300:2489   */\ntag_22:\n    /* \"#utility.yul\":2377:2409   */\n  tag_55\n  tag_21\n  jump\t// in\ntag_55:\n    /* \"#utility.yul\":2418:2483   */\n  tag_56\n    /* \"#utility.yul\":2476:2482   */\n  dup2\n    /* \"#utility.yul\":2468:2474   */\n  dup5\n    /* \"#utility.yul\":2462:2466   */\n  dup5\n    /* \"#utility.yul\":2418:2483   */\n  tag_20\n  jump\t// in\ntag_56:\n    /* \"#utility.yul\":2353:2489   */\n  pop\n    /* \"#utility.yul\":2300:2489   */\n  pop\n  pop\n  jump\t// out\n    /* \"#utility.yul\":2495:2681   */\ntag_23:\n    /* \"#utility.yul\":2555:2675   */\ntag_58:\n    /* \"#utility.yul\":2572:2575   */\n  dup2\n    /* \"#utility.yul\":2565:2570   */\n  dup2\n    /* \"#utility.yul\":2562:2576   */\n  lt\n    /* \"#utility.yul\":2555:2675   */\n  iszero\n  tag_60\n  jumpi\n    /* \"#utility.yul\":2626:2665   */\n  tag_61\n    /* \"#utility.yul\":2663:2664   */\n  0x00\n    /* \"#utility.yul\":2656:2661   */\n  dup3\n    /* \"#utility.yul\":2626:2665   */\n  tag_22\n  jump\t// in\ntag_61:\n    /* \"#utility.yul\":2599:2600   */\n  0x01\n    /* \"#utility.yul\":2592:2597   */\n  dup2\n    /* \"#utility.yul\":2588:2601   */\n  add\n    /* \"#utility.yul\":2579:2601   */\n  swap1\n  pop\n    /* \"#utility.yul\":2555:2675   */\n  jump(tag_58)\ntag_60:\n    /* \"#utility.yul\":2495:2681   */\n  pop\n  pop\n  jump\t// out\n    /* \"#utility.yul\":2687:3230   */\ntag_24:\n    /* \"#utility.yul\":2788:2790   */\n  0x1f\n    /* \"#utility.yul\":2783:2786   */\n  dup3\n    /* \"#utility.yul\":2780:2791   */\n  gt\n    /* \"#utility.yul\":2777:3223   */\n  iszero\n  tag_63\n  jumpi\n    /* \"#utility.yul\":2822:2860   */\n  tag_64\n    /* \"#utility.yul\":2854:2859   */\n  dup2\n    /* \"#utility.yul\":2822:2860   */\n  tag_12\n  jump\t// in\ntag_64:\n    /* \"#utility.yul\":2906:2935   */\n  tag_65\n    /* \"#utility.yul\":2924:2934   */\n  dup5\n    /* \"#utility.yul\":2906:2935   */\n  tag_13\n  jump\t// in\ntag_65:\n    /* \"#utility.yul\":2896:2904   */\n  dup2\n    /* \"#utility.yul\":2892:2936   */\n  add\n    /* \"#utility.yul\":3089:3091   */\n  0x20\n    /* \"#utility.yul\":3077:3087   */\n  dup6\n    /* \"#utility.yul\":3074:3092   */\n  lt\n    /* \"#utility.yul\":3071:3120   */\n  iszero\n  tag_66\n  jumpi\n    /* \"#utility.yul\":3110:3118   */\n  dup2\n    /* \"#utility.yul\":3095:3118   */\n  swap1\n  pop\n    /* \"#utility.yul\":3071:3120   */\ntag_66:\n    /* \"#utility.yul\":3133:3213   */\n  tag_67\n    /* \"#utility.yul\":3189:3211   */\n  tag_68\n    /* \"#utility.yul\":3207:3210   */\n  dup6\n    /* \"#utility.yul\":3189:3211   */\n  tag_13\n  jump\t// in\ntag_68:\n    /* \"#utility.yul\":3179:3187   */\n  dup4\n    /* \"#utility.yul\":3175:3212   */\n  add\n    /* \"#utility.yul\":3162:3173   */\n  dup3\n    /* \"#utility.yul\":3133:3213   */\n  tag_23\n  jump\t// in\ntag_67:\n    /* \"#utility.yul\":2792:3223   */\n  pop\n  pop\n    /* \"#utility.yul\":2777:3223   */\ntag_63:\n    /* \"#utility.yul\":2687:3230   */\n  pop\n  pop\n  pop\n  jump\t// out\n    /* \"#utility.yul\":3236:3353   */\ntag_25:\n    /* \"#utility.yul\":3290:3298   */\n  0x00\n    /* \"#utility.yul\":3340:3345   */\n  dup3\n    /* \"#utility.yul\":3334:3338   */\n  dup3\n    /* \"#utility.yul\":3330:3346   */\n  shr\n    /* \"#utility.yul\":3309:3346   */\n  swap1\n  pop\n    /* \"#utility.yul\":3236:3353   */\n  swap3\n  swap2\n  pop\n  pop\n  jump\t// out\n    /* \"#utility.yul\":3359:3528   */\ntag_26:\n    /* \"#utility.yul\":3403:3409   */\n  0x00\n    /* \"#utility.yul\":3436:3487   */\n  tag_71\n    /* \"#utility.yul\":3484:3485   */\n  0x00\n    /* \"#utility.yul\":3480:3486   */\n  not\n    /* \"#utility.yul\":3472:3477   */\n  dup5\n    /* \"#utility.yul\":3469:3470   */\n  0x08\n    /* \"#utility.yul\":3465:3478   */\n  mul\n    /* \"#utility.yul\":3436:3487   */\n  tag_25\n  jump\t// in\ntag_71:\n    /* \"#utility.yul\":3432:3488   */\n  not\n    /* \"#utility.yul\":3517:3521   */\n  dup1\n    /* \"#utility.yul\":3511:3515   */\n  dup4\n    /* \"#utility.yul\":3507:3522   */\n  and\n    /* \"#utility.yul\":3497:3522   */\n  swap2\n  pop\n    /* \"#utility.yul\":3410:3528   */\n  pop\n    /* \"#utility.yul\":3359:3528   */\n  swap3\n  swap2\n  pop\n  pop\n  jump\t// out\n    /* \"#utility.yul\":3533:3828   */\ntag_27:\n    /* \"#utility.yul\":3609:3613   */\n  0x00\n    /* \"#utility.yul\":3755:3784   */\n  tag_73\n    /* \"#utility.yul\":3780:3783   */\n  dup4\n    /* \"#utility.yul\":3774:3778   */\n  dup4\n    /* \"#utility.yul\":3755:3784   */\n  tag_26\n  jump\t// in\ntag_73:\n    /* \"#utility.yul\":3747:3784   */\n  swap2\n  pop\n    /* \"#utility.yul\":3817:3820   */\n  dup3\n    /* \"#utility.yul\":3814:3815   */\n  0x02\n    /* \"#utility.yul\":3810:3821   */\n  mul\n    /* \"#utility.yul\":3804:3808   */\n  dup3\n    /* \"#utility.yul\":3801:3822   */\n  or\n    /* \"#utility.yul\":3793:3822   */\n  swap1\n  pop\n    /* \"#utility.yul\":3533:3828   */\n  swap3\n  swap2\n  pop\n  pop\n  jump\t// out\n    /* \"#utility.yul\":3833:5228   */\ntag_5:\n    /* \"#utility.yul\":3950:3987   */\n  tag_75\n    /* \"#utility.yul\":3983:3986   */\n  dup3\n    /* \"#utility.yul\":3950:3987   */\n  tag_8\n  jump\t// in\ntag_75:\n    /* \"#utility.yul\":4052:4070   */\n  0xffffffffffffffff\n    /* \"#utility.yul\":4044:4050   */\n  dup2\n    /* \"#utility.yul\":4041:4071   */\n  gt\n    /* \"#utility.yul\":4038:4094   */\n  iszero\n  tag_76\n  jumpi\n    /* \"#utility.yul\":4074:4092   */\n  tag_77\n  tag_9\n  jump\t// in\ntag_77:\n    /* \"#utility.yul\":4038:4094   */\ntag_76:\n    /* \"#utility.yul\":4118:4156   */\n  tag_78\n    /* \"#utility.yul\":4150:4154   */\n  dup3\n    /* \"#utility.yul\":4144:4155   */\n  sload\n    /* \"#utility.yul\":4118:4156   */\n  tag_11\n  jump\t// in\ntag_78:\n    /* \"#utility.yul\":4203:4270   */\n  tag_79\n    /* \"#utility.yul\":4263:4269   */\n  dup3\n    /* \"#utility.yul\":4255:4261   */\n  dup3\n    /* \"#utility.yul\":4249:4253   */\n  dup6\n    /* \"#utility.yul\":4203:4270   */\n  tag_24\n  jump\t// in\ntag_79:\n    /* \"#utility.yul\":4297:4298   */\n  0x00\n    /* \"#utility.yul\":4321:4325   */\n  0x20\n    /* \"#utility.yul\":4308:4325   */\n  swap1\n  pop\n    /* \"#utility.yul\":4353:4355   */\n  0x1f\n    /* \"#utility.yul\":4345:4351   */\n  dup4\n    /* \"#utility.yul\":4342:4356   */\n  gt\n    /* \"#utility.yul\":4370:4371   */\n  0x01\n    /* \"#utility.yul\":4365:4983   */\n  dup2\n  eq\n  tag_81\n  jumpi\n    /* \"#utility.yul\":5027:5028   */\n  0x00\n    /* \"#utility.yul\":5044:5050   */\n  dup5\n    /* \"#utility.yul\":5041:5118   */\n  iszero\n  tag_82\n  jumpi\n    /* \"#utility.yul\":5093:5102   */\n  dup3\n    /* \"#utility.yul\":5088:5091   */\n  dup8\n    /* \"#utility.yul\":5084:5103   */\n  add\n    /* \"#utility.yul\":5078:5104   */\n  mload\n    /* \"#utility.yul\":5069:5104   */\n  swap1\n  pop\n    /* \"#utility.yul\":5041:5118   */\ntag_82:\n    /* \"#utility.yul\":5144:5211   */\n  tag_83\n    /* \"#utility.yul\":5204:5210   */\n  dup6\n    /* \"#utility.yul\":5197:5202   */\n  dup3\n    /* \"#utility.yul\":5144:5211   */\n  tag_27\n  jump\t// in\ntag_83:\n    /* \"#utility.yul\":5138:5142   */\n  dup7\n    /* \"#utility.yul\":5131:5212   */\n  sstore\n    /* \"#utility.yul\":5000:5222   */\n  pop\n    /* \"#utility.yul\":4335:5222   */\n  jump(tag_80)\n    /* \"#utility.yul\":4365:4983   */\ntag_81:\n    /* \"#utility.yul\":4417:4421   */\n  0x1f\n    /* \"#utility.yul\":4413:4422   */\n  not\n    /* \"#utility.yul\":4405:4411   */\n  dup5\n    /* \"#utility.yul\":4401:4423   */\n  and\n    /* \"#utility.yul\":4451:4488   */\n  tag_84\n    /* \"#utility.yul\":4483:4487   */\n  dup7\n    /* \"#utility.yul\":4451:4488   */\n  tag_12\n  jump\t// in\ntag_84:\n    /* \"#utility.yul\":4510:4511   */\n  0x00\n    /* \"#utility.yul\":4524:4732   */\ntag_85:\n    /* \"#utility.yul\":4538:4545   */\n  dup3\n    /* \"#utility.yul\":4535:4536   */\n  dup2\n    /* \"#utility.yul\":4532:4546   */\n  lt\n    /* \"#utility.yul\":4524:4732   */\n  iszero\n  tag_87\n  jumpi\n    /* \"#utility.yul\":4617:4626   */\n  dup5\n    /* \"#utility.yul\":4612:4615   */\n  dup10\n    /* \"#utility.yul\":4608:4627   */\n  add\n    /* \"#utility.yul\":4602:4628   */\n  mload\n    /* \"#utility.yul\":4594:4600   */\n  dup3\n    /* \"#utility.yul\":4587:4629   */\n  sstore\n    /* \"#utility.yul\":4668:4669   */\n  0x01\n    /* \"#utility.yul\":4660:4666   */\n  dup3\n    /* \"#utility.yul\":4656:4670   */\n  add\n    /* \"#utility.yul\":4646:4670   */\n  swap2\n  pop\n    /* \"#utility.yul\":4715:4717   */\n  0x20\n    /* \"#utility.yul\":4704:4713   */\n  dup6\n    /* \"#utility.yul\":4700:4718   */\n  add\n    /* \"#utility.yul\":4687:4718   */\n  swap5\n  pop\n    /* \"#utility.yul\":4561:4565   */\n  0x20\n    /* \"#utility.yul\":4558:4559   */\n  dup2\n    /* \"#utility.yul\":4554:4566   */\n  add\n    /* \"#utility.yul\":4549:4566   */\n  swap1\n  pop\n    /* \"#utility.yul\":4524:4732   */\n  jump(tag_85)\ntag_87:\n    /* \"#utility.yul\":4760:4766   */\n  dup7\n    /* \"#utility.yul\":4751:4758   */\n  dup4\n    /* \"#utility.yul\":4748:4767   */\n  lt\n    /* \"#utility.yul\":4745:4924   */\n  iszero\n  tag_88\n  jumpi\n    /* \"#utility.yul\":4818:4827   */\n  dup5\n    /* \"#utility.yul\":4813:4816   */\n  dup10\n    /* \"#utility.yul\":4809:4828   */\n  add\n    /* \"#utility.yul\":4803:4829   */\n  mload\n    /* \"#utility.yul\":4861:4909   */\n  tag_89\n    /* \"#utility.yul\":4903:4907   */\n  0x1f\n    /* \"#utility.yul\":4895:4901   */\n  dup10\n    /* \"#utility.yul\":4891:4908   */\n  and\n    /* \"#utility.yul\":4880:4889   */\n  dup3\n    /* \"#utility.yul\":4861:4909   */\n  tag_26\n  jump\t// in\ntag_89:\n    /* \"#utility.yul\":4853:4859   */\n  dup4\n    /* \"#utility.yul\":4846:4910   */\n  sstore\n    /* \"#utility.yul\":4768:4924   */\n  pop\n    /* \"#utility.yul\":4745:4924   */\ntag_88:\n    /* \"#utility.yul\":4970:4971   */\n  0x01\n    /* \"#utility.yul\":4966:4967   */\n  0x02\n    /* \"#utility.yul\":4958:4964   */\n  dup9\n    /* \"#utility.yul\":4954:4968   */\n  mul\n    /* \"#utility.yul\":4950:4972   */\n  add\n    /* \"#utility.yul\":4944:4948   */\n  dup9\n    /* \"#utility.yul\":4937:4973   */\n  sstore\n    /* \"#utility.yul\":4372:4983   */\n  pop\n  pop\n  pop\n    /* \"#utility.yul\":4335:5222   */\ntag_80:\n  pop\n    /* \"#utility.yul\":3925:5228   */\n  pop\n  pop\n  pop\n    /* \"#utility.yul\":3833:5228   */\n  pop\n  pop\n  jump\t// out\n    /* \"contracts/Counter.sol\":59:942  contract MyContract{// stores count on blockchain... */\ntag_7:\n  dataSize(sub_0)\n  dup1\n  dataOffset(sub_0)\n  0x00\n  codecopy\n  0x00\n  return\nstop\n\nsub_0: assembly {\n        /* \"contracts/Counter.sol\":59:942  contract MyContract{// stores count on blockchain... */\n      mstore(0x40, 0x80)\n      callvalue\n      dup1\n      iszero\n      tag_1\n      jumpi\n      0x00\n      dup1\n      revert\n    tag_1:\n      pop\n      jumpi(tag_2, lt(calldatasize, 0x04))\n      shr(0xe0, calldataload(0x00))\n      dup1\n      0x028414f2\n      eq\n      tag_3\n      jumpi\n      dup1\n      0x27d3553f\n      eq\n      tag_4\n      jumpi\n      dup1\n      0x4622ab03\n      eq\n      tag_5\n      jumpi\n      dup1\n      0x493ec707\n      eq\n      tag_6\n      jumpi\n      dup1\n      0x68744046\n      eq\n      tag_7\n      jumpi\n      dup1\n      0x8da5cb5b\n      eq\n      tag_8\n      jumpi\n    tag_2:\n      0x00\n      dup1\n      revert\n        /* \"contracts/Counter.sol\":545:703  function addBook(uint _id, string memory _title, string memory _author) public {... */\n    tag_3:\n      tag_9\n      0x04\n      dup1\n      calldatasize\n      sub\n      dup2\n      add\n      swap1\n      tag_10\n      swap2\n      swap1\n      tag_11\n      jump\t// in\n    tag_10:\n      tag_12\n      jump\t// in\n    tag_9:\n      stop\n        /* \"contracts/Counter.sol\":267:322  mapping(address => mapping(uint=> Book)) public myBooks */\n    tag_4:\n      tag_13\n      0x04\n      dup1\n      calldatasize\n      sub\n      dup2\n      add\n      swap1\n      tag_14\n      swap2\n      swap1\n      tag_15\n      jump\t// in\n    tag_14:\n      tag_16\n      jump\t// in\n    tag_13:\n      mload(0x40)\n      tag_17\n      swap3\n      swap2\n      swap1\n      tag_18\n      jump\t// in\n    tag_17:\n      mload(0x40)\n      dup1\n      swap2\n      sub\n      swap1\n      return\n        /* \"contracts/Counter.sol\":179:218  mapping (uint  => string ) public names */\n    tag_5:\n      tag_19\n      0x04\n      dup1\n      calldatasize\n      sub\n      dup2\n      add\n      swap1\n      tag_20\n      swap2\n      swap1\n      tag_21\n      jump\t// in\n    tag_20:\n      tag_22\n      jump\t// in\n    tag_19:\n      mload(0x40)\n      tag_23\n      swap2\n      swap1\n      tag_24\n      jump\t// in\n    tag_23:\n      mload(0x40)\n      dup1\n      swap2\n      sub\n      swap1\n      return\n        /* \"contracts/Counter.sol\":711:939  function addMyBook(uint _id, string memory _title, string memory _author) public {... */\n    tag_6:\n      tag_25\n      0x04\n      dup1\n      calldatasize\n      sub\n      dup2\n      add\n      swap1\n      tag_26\n      swap2\n      swap1\n      tag_11\n      jump\t// in\n    tag_26:\n      tag_27\n      jump\t// in\n    tag_25:\n      stop\n        /* \"contracts/Counter.sol\":225:260  mapping (uint => Book) public books */\n    tag_7:\n      tag_28\n      0x04\n      dup1\n      calldatasize\n      sub\n      dup2\n      add\n      swap1\n      tag_29\n      swap2\n      swap1\n      tag_21\n      jump\t// in\n    tag_29:\n      tag_30\n      jump\t// in\n    tag_28:\n      mload(0x40)\n      tag_31\n      swap3\n      swap2\n      swap1\n      tag_18\n      jump\t// in\n    tag_31:\n      mload(0x40)\n      dup1\n      swap2\n      sub\n      swap1\n      return\n        /* \"contracts/Counter.sol\":114:134  address public owner */\n    tag_8:\n      tag_32\n      tag_33\n      jump\t// in\n    tag_32:\n      mload(0x40)\n      tag_34\n      swap2\n      swap1\n      tag_35\n      jump\t// in\n    tag_34:\n      mload(0x40)\n      dup1\n      swap2\n      sub\n      swap1\n      return\n        /* \"contracts/Counter.sol\":545:703  function addBook(uint _id, string memory _title, string memory _author) public {... */\n    tag_12:\n        /* \"contracts/Counter.sol\":648:669  Book(_title, _author) */\n      mload(0x40)\n      dup1\n      0x40\n      add\n      0x40\n      mstore\n      dup1\n        /* \"contracts/Counter.sol\":653:659  _title */\n      dup4\n        /* \"contracts/Counter.sol\":648:669  Book(_title, _author) */\n      dup2\n      mstore\n      0x20\n      add\n        /* \"contracts/Counter.sol\":661:668  _author */\n      dup3\n        /* \"contracts/Counter.sol\":648:669  Book(_title, _author) */\n      dup2\n      mstore\n      pop\n        /* \"contracts/Counter.sol\":635:640  books */\n      0x03\n        /* \"contracts/Counter.sol\":635:645  books[_id] */\n      0x00\n        /* \"contracts/Counter.sol\":641:644  _id */\n      dup6\n        /* \"contracts/Counter.sol\":635:645  books[_id] */\n      dup2\n      mstore\n      0x20\n      add\n      swap1\n      dup2\n      mstore\n      0x20\n      add\n      0x00\n      keccak256\n        /* \"contracts/Counter.sol\":635:669  books[_id] = Book(_title, _author) */\n      0x00\n      dup3\n      add\n      mload\n      dup2\n      0x00\n      add\n      swap1\n      dup2\n      tag_37\n      swap2\n      swap1\n      tag_38\n      jump\t// in\n    tag_37:\n      pop\n      0x20\n      dup3\n      add\n      mload\n      dup2\n      0x01\n      add\n      swap1\n      dup2\n      tag_39\n      swap2\n      swap1\n      tag_38\n      jump\t// in\n    tag_39:\n      pop\n      swap1\n      pop\n      pop\n        /* \"contracts/Counter.sol\":545:703  function addBook(uint _id, string memory _title, string memory _author) public {... */\n      pop\n      pop\n      pop\n      jump\t// out\n        /* \"contracts/Counter.sol\":267:322  mapping(address => mapping(uint=> Book)) public myBooks */\n    tag_16:\n      mstore(0x20, 0x04)\n      dup2\n      0x00\n      mstore\n      mstore(0x20, keccak256(0x00, 0x40))\n      dup1\n      0x00\n      mstore\n      keccak256(0x00, 0x40)\n      0x00\n      swap2\n      pop\n      swap2\n      pop\n      pop\n      dup1\n      0x00\n      add\n      dup1\n      sload\n      tag_40\n      swap1\n      tag_41\n      jump\t// in\n    tag_40:\n      dup1\n      0x1f\n      add\n      0x20\n      dup1\n      swap2\n      div\n      mul\n      0x20\n      add\n      mload(0x40)\n      swap1\n      dup2\n      add\n      0x40\n      mstore\n      dup1\n      swap3\n      swap2\n      swap1\n      dup2\n      dup2\n      mstore\n      0x20\n      add\n      dup3\n      dup1\n      sload\n      tag_42\n      swap1\n      tag_41\n      jump\t// in\n    tag_42:\n      dup1\n      iszero\n      tag_43\n      jumpi\n      dup1\n      0x1f\n      lt\n      tag_44\n      jumpi\n      0x0100\n      dup1\n      dup4\n      sload\n      div\n      mul\n      dup4\n      mstore\n      swap2\n      0x20\n      add\n      swap2\n      jump(tag_43)\n    tag_44:\n      dup3\n      add\n      swap2\n      swap1\n      0x00\n      mstore\n      keccak256(0x00, 0x20)\n      swap1\n    tag_45:\n      dup2\n      sload\n      dup2\n      mstore\n      swap1\n      0x01\n      add\n      swap1\n      0x20\n      add\n      dup1\n      dup4\n      gt\n      tag_45\n      jumpi\n      dup3\n      swap1\n      sub\n      0x1f\n      and\n      dup3\n      add\n      swap2\n    tag_43:\n      pop\n      pop\n      pop\n      pop\n      pop\n      swap1\n      dup1\n      0x01\n      add\n      dup1\n      sload\n      tag_46\n      swap1\n      tag_41\n      jump\t// in\n    tag_46:\n      dup1\n      0x1f\n      add\n      0x20\n      dup1\n      swap2\n      div\n      mul\n      0x20\n      add\n      mload(0x40)\n      swap1\n      dup2\n      add\n      0x40\n      mstore\n      dup1\n      swap3\n      swap2\n      swap1\n      dup2\n      dup2\n      mstore\n      0x20\n      add\n      dup3\n      dup1\n      sload\n      tag_47\n      swap1\n      tag_41\n      jump\t// in\n    tag_47:\n      dup1\n      iszero\n      tag_48\n      jumpi\n      dup1\n      0x1f\n      lt\n      tag_49\n      jumpi\n      0x0100\n      dup1\n      dup4\n      sload\n      div\n      mul\n      dup4\n      mstore\n      swap2\n      0x20\n      add\n      swap2\n      jump(tag_48)\n    tag_49:\n      dup3\n      add\n      swap2\n      swap1\n      0x00\n      mstore\n      keccak256(0x00, 0x20)\n      swap1\n    tag_50:\n      dup2\n      sload\n      dup2\n      mstore\n      swap1\n      0x01\n      add\n      swap1\n      0x20\n      add\n      dup1\n      dup4\n      gt\n      tag_50\n      jumpi\n      dup3\n      swap1\n      sub\n      0x1f\n      and\n      dup3\n      add\n      swap2\n    tag_48:\n      pop\n      pop\n      pop\n      pop\n      pop\n      swap1\n      pop\n      dup3\n      jump\t// out\n        /* \"contracts/Counter.sol\":179:218  mapping (uint  => string ) public names */\n    tag_22:\n      mstore(0x20, 0x02)\n      dup1\n      0x00\n      mstore\n      keccak256(0x00, 0x40)\n      0x00\n      swap2\n      pop\n      swap1\n      pop\n      dup1\n      sload\n      tag_51\n      swap1\n      tag_41\n      jump\t// in\n    tag_51:\n      dup1\n      0x1f\n      add\n      0x20\n      dup1\n      swap2\n      div\n      mul\n      0x20\n      add\n      mload(0x40)\n      swap1\n      dup2\n      add\n      0x40\n      mstore\n      dup1\n      swap3\n      swap2\n      swap1\n      dup2\n      dup2\n      mstore\n      0x20\n      add\n      dup3\n      dup1\n      sload\n      tag_52\n      swap1\n      tag_41\n      jump\t// in\n    tag_52:\n      dup1\n      iszero\n      tag_53\n      jumpi\n      dup1\n      0x1f\n      lt\n      tag_54\n      jumpi\n      0x0100\n      dup1\n      dup4\n      sload\n      div\n      mul\n      dup4\n      mstore\n      swap2\n      0x20\n      add\n      swap2\n      jump(tag_53)\n    tag_54:\n      dup3\n      add\n      swap2\n      swap1\n      0x00\n      mstore\n      keccak256(0x00, 0x20)\n      swap1\n    tag_55:\n      dup2\n      sload\n      dup2\n      mstore\n      swap1\n      0x01\n      add\n      swap1\n      0x20\n      add\n      dup1\n      dup4\n      gt\n      tag_55\n      jumpi\n      dup3\n      swap1\n      sub\n      0x1f\n      and\n      dup3\n      add\n      swap2\n    tag_53:\n      pop\n      pop\n      pop\n      pop\n      pop\n      dup2\n      jump\t// out\n        /* \"contracts/Counter.sol\":711:939  function addMyBook(uint _id, string memory _title, string memory _author) public {... */\n    tag_27:\n        /* \"contracts/Counter.sol\":830:851  Book(_title, _author) */\n      mload(0x40)\n      dup1\n      0x40\n      add\n      0x40\n      mstore\n      dup1\n        /* \"contracts/Counter.sol\":835:841  _title */\n      dup4\n        /* \"contracts/Counter.sol\":830:851  Book(_title, _author) */\n      dup2\n      mstore\n      0x20\n      add\n        /* \"contracts/Counter.sol\":843:850  _author */\n      dup3\n        /* \"contracts/Counter.sol\":830:851  Book(_title, _author) */\n      dup2\n      mstore\n      pop\n        /* \"contracts/Counter.sol\":803:810  myBooks */\n      0x04\n        /* \"contracts/Counter.sol\":803:822  myBooks[msg.sender] */\n      0x00\n        /* \"contracts/Counter.sol\":811:821  msg.sender */\n      caller\n        /* \"contracts/Counter.sol\":803:822  myBooks[msg.sender] */\n      0xffffffffffffffffffffffffffffffffffffffff\n      and\n      0xffffffffffffffffffffffffffffffffffffffff\n      and\n      dup2\n      mstore\n      0x20\n      add\n      swap1\n      dup2\n      mstore\n      0x20\n      add\n      0x00\n      keccak256\n        /* \"contracts/Counter.sol\":803:827  myBooks[msg.sender][_id] */\n      0x00\n        /* \"contracts/Counter.sol\":823:826  _id */\n      dup6\n        /* \"contracts/Counter.sol\":803:827  myBooks[msg.sender][_id] */\n      dup2\n      mstore\n      0x20\n      add\n      swap1\n      dup2\n      mstore\n      0x20\n      add\n      0x00\n      keccak256\n        /* \"contracts/Counter.sol\":803:851  myBooks[msg.sender][_id] = Book(_title, _author) */\n      0x00\n      dup3\n      add\n      mload\n      dup2\n      0x00\n      add\n      swap1\n      dup2\n      tag_57\n      swap2\n      swap1\n      tag_38\n      jump\t// in\n    tag_57:\n      pop\n      0x20\n      dup3\n      add\n      mload\n      dup2\n      0x01\n      add\n      swap1\n      dup2\n      tag_58\n      swap2\n      swap1\n      tag_38\n      jump\t// in\n    tag_58:\n      pop\n      swap1\n      pop\n      pop\n        /* \"contracts/Counter.sol\":711:939  function addMyBook(uint _id, string memory _title, string memory _author) public {... */\n      pop\n      pop\n      pop\n      jump\t// out\n        /* \"contracts/Counter.sol\":225:260  mapping (uint => Book) public books */\n    tag_30:\n      mstore(0x20, 0x03)\n      dup1\n      0x00\n      mstore\n      keccak256(0x00, 0x40)\n      0x00\n      swap2\n      pop\n      swap1\n      pop\n      dup1\n      0x00\n      add\n      dup1\n      sload\n      tag_59\n      swap1\n      tag_41\n      jump\t// in\n    tag_59:\n      dup1\n      0x1f\n      add\n      0x20\n      dup1\n      swap2\n      div\n      mul\n      0x20\n      add\n      mload(0x40)\n      swap1\n      dup2\n      add\n      0x40\n      mstore\n      dup1\n      swap3\n      swap2\n      swap1\n      dup2\n      dup2\n      mstore\n      0x20\n      add\n      dup3\n      dup1\n      sload\n      tag_60\n      swap1\n      tag_41\n      jump\t// in\n    tag_60:\n      dup1\n      iszero\n      tag_61\n      jumpi\n      dup1\n      0x1f\n      lt\n      tag_62\n      jumpi\n      0x0100\n      dup1\n      dup4\n      sload\n      div\n      mul\n      dup4\n      mstore\n      swap2\n      0x20\n      add\n      swap2\n      jump(tag_61)\n    tag_62:\n      dup3\n      add\n      swap2\n      swap1\n      0x00\n      mstore\n      keccak256(0x00, 0x20)\n      swap1\n    tag_63:\n      dup2\n      sload\n      dup2\n      mstore\n      swap1\n      0x01\n      add\n      swap1\n      0x20\n      add\n      dup1\n      dup4\n      gt\n      tag_63\n      jumpi\n      dup3\n      swap1\n      sub\n      0x1f\n      and\n      dup3\n      add\n      swap2\n    tag_61:\n      pop\n      pop\n      pop\n      pop\n      pop\n      swap1\n      dup1\n      0x01\n      add\n      dup1\n      sload\n      tag_64\n      swap1\n      tag_41\n      jump\t// in\n    tag_64:\n      dup1\n      0x1f\n      add\n      0x20\n      dup1\n      swap2\n      div\n      mul\n      0x20\n      add\n      mload(0x40)\n      swap1\n      dup2\n      add\n      0x40\n      mstore\n      dup1\n      swap3\n      swap2\n      swap1\n      dup2\n      dup2\n      mstore\n      0x20\n      add\n      dup3\n      dup1\n      sload\n      tag_65\n      swap1\n      tag_41\n      jump\t// in\n    tag_65:\n      dup1\n      iszero\n      tag_66\n      jumpi\n      dup1\n      0x1f\n      lt\n      tag_67\n      jumpi\n      0x0100\n      dup1\n      dup4\n      sload\n      div\n      mul\n      dup4\n      mstore\n      swap2\n      0x20\n      add\n      swap2\n      jump(tag_66)\n    tag_67:\n      dup3\n      add\n      swap2\n      swap1\n      0x00\n      mstore\n      keccak256(0x00, 0x20)\n      swap1\n    tag_68:\n      dup2\n      sload\n      dup2\n      mstore\n      swap1\n      0x01\n      add\n      swap1\n      0x20\n      add\n      dup1\n      dup4\n      gt\n      tag_68\n      jumpi\n      dup3\n      swap1\n      sub\n      0x1f\n      and\n      dup3\n      add\n      swap2\n    tag_66:\n      pop\n      pop\n      pop\n      pop\n      pop\n      swap1\n      pop\n      dup3\n      jump\t// out\n        /* \"contracts/Counter.sol\":114:134  address public owner */\n    tag_33:\n      0x00\n      dup1\n      sload\n      swap1\n      0x0100\n      exp\n      swap1\n      div\n      0xffffffffffffffffffffffffffffffffffffffff\n      and\n      dup2\n      jump\t// out\n        /* \"#utility.yul\":7:82   */\n    tag_69:\n        /* \"#utility.yul\":40:46   */\n      0x00\n        /* \"#utility.yul\":73:75   */\n      0x40\n        /* \"#utility.yul\":67:76   */\n      mload\n        /* \"#utility.yul\":57:76   */\n      swap1\n      pop\n        /* \"#utility.yul\":7:82   */\n      swap1\n      jump\t// out\n        /* \"#utility.yul\":88:205   */\n    tag_70:\n        /* \"#utility.yul\":197:198   */\n      0x00\n        /* \"#utility.yul\":194:195   */\n      dup1\n        /* \"#utility.yul\":187:199   */\n      revert\n        /* \"#utility.yul\":211:328   */\n    tag_71:\n        /* \"#utility.yul\":320:321   */\n      0x00\n        /* \"#utility.yul\":317:318   */\n      dup1\n        /* \"#utility.yul\":310:322   */\n      revert\n        /* \"#utility.yul\":334:411   */\n    tag_72:\n        /* \"#utility.yul\":371:378   */\n      0x00\n        /* \"#utility.yul\":400:405   */\n      dup2\n        /* \"#utility.yul\":389:405   */\n      swap1\n      pop\n        /* \"#utility.yul\":334:411   */\n      swap2\n      swap1\n      pop\n      jump\t// out\n        /* \"#utility.yul\":417:539   */\n    tag_73:\n        /* \"#utility.yul\":490:514   */\n      tag_116\n        /* \"#utility.yul\":508:513   */\n      dup2\n        /* \"#utility.yul\":490:514   */\n      tag_72\n      jump\t// in\n    tag_116:\n        /* \"#utility.yul\":483:488   */\n      dup2\n        /* \"#utility.yul\":480:515   */\n      eq\n        /* \"#utility.yul\":470:533   */\n      tag_117\n      jumpi\n        /* \"#utility.yul\":529:530   */\n      0x00\n        /* \"#utility.yul\":526:527   */\n      dup1\n        /* \"#utility.yul\":519:531   */\n      revert\n        /* \"#utility.yul\":470:533   */\n    tag_117:\n        /* \"#utility.yul\":417:539   */\n      pop\n      jump\t// out\n        /* \"#utility.yul\":545:684   */\n    tag_74:\n        /* \"#utility.yul\":591:596   */\n      0x00\n        /* \"#utility.yul\":629:635   */\n      dup2\n        /* \"#utility.yul\":616:636   */\n      calldataload\n        /* \"#utility.yul\":607:636   */\n      swap1\n      pop\n        /* \"#utility.yul\":645:678   */\n      tag_119\n        /* \"#utility.yul\":672:677   */\n      dup2\n        /* \"#utility.yul\":645:678   */\n      tag_73\n      jump\t// in\n    tag_119:\n        /* \"#utility.yul\":545:684   */\n      swap3\n      swap2\n      pop\n      pop\n      jump\t// out\n        /* \"#utility.yul\":690:807   */\n    tag_75:\n        /* \"#utility.yul\":799:800   */\n      0x00\n        /* \"#utility.yul\":796:797   */\n      dup1\n        /* \"#utility.yul\":789:801   */\n      revert\n        /* \"#utility.yul\":813:930   */\n    tag_76:\n        /* \"#utility.yul\":922:923   */\n      0x00\n        /* \"#utility.yul\":919:920   */\n      dup1\n        /* \"#utility.yul\":912:924   */\n      revert\n        /* \"#utility.yul\":936:1038   */\n    tag_77:\n        /* \"#utility.yul\":977:983   */\n      0x00\n        /* \"#utility.yul\":1028:1030   */\n      0x1f\n        /* \"#utility.yul\":1024:1031   */\n      not\n        /* \"#utility.yul\":1019:1021   */\n      0x1f\n        /* \"#utility.yul\":1012:1017   */\n      dup4\n        /* \"#utility.yul\":1008:1022   */\n      add\n        /* \"#utility.yul\":1004:1032   */\n      and\n        /* \"#utility.yul\":994:1032   */\n      swap1\n      pop\n        /* \"#utility.yul\":936:1038   */\n      swap2\n      swap1\n      pop\n      jump\t// out\n        /* \"#utility.yul\":1044:1224   */\n    tag_78:\n        /* \"#utility.yul\":1092:1169   */\n      0x4e487b7100000000000000000000000000000000000000000000000000000000\n        /* \"#utility.yul\":1089:1090   */\n      0x00\n        /* \"#utility.yul\":1082:1170   */\n      mstore\n        /* \"#utility.yul\":1189:1193   */\n      0x41\n        /* \"#utility.yul\":1186:1187   */\n      0x04\n        /* \"#utility.yul\":1179:1194   */\n      mstore\n        /* \"#utility.yul\":1213:1217   */\n      0x24\n        /* \"#utility.yul\":1210:1211   */\n      0x00\n        /* \"#utility.yul\":1203:1218   */\n      revert\n        /* \"#utility.yul\":1230:1511   */\n    tag_79:\n        /* \"#utility.yul\":1313:1340   */\n      tag_125\n        /* \"#utility.yul\":1335:1339   */\n      dup3\n        /* \"#utility.yul\":1313:1340   */\n      tag_77\n      jump\t// in\n    tag_125:\n        /* \"#utility.yul\":1305:1311   */\n      dup2\n        /* \"#utility.yul\":1301:1341   */\n      add\n        /* \"#utility.yul\":1443:1449   */\n      dup2\n        /* \"#utility.yul\":1431:1441   */\n      dup2\n        /* \"#utility.yul\":1428:1450   */\n      lt\n        /* \"#utility.yul\":1407:1425   */\n      0xffffffffffffffff\n        /* \"#utility.yul\":1395:1405   */\n      dup3\n        /* \"#utility.yul\":1392:1426   */\n      gt\n        /* \"#utility.yul\":1389:1451   */\n      or\n        /* \"#utility.yul\":1386:1474   */\n      iszero\n      tag_126\n      jumpi\n        /* \"#utility.yul\":1454:1472   */\n      tag_127\n      tag_78\n      jump\t// in\n    tag_127:\n        /* \"#utility.yul\":1386:1474   */\n    tag_126:\n        /* \"#utility.yul\":1494:1504   */\n      dup1\n        /* \"#utility.yul\":1490:1492   */\n      0x40\n        /* \"#utility.yul\":1483:1505   */\n      mstore\n        /* \"#utility.yul\":1273:1511   */\n      pop\n        /* \"#utility.yul\":1230:1511   */\n      pop\n      pop\n      jump\t// out\n        /* \"#utility.yul\":1517:1646   */\n    tag_80:\n        /* \"#utility.yul\":1551:1557   */\n      0x00\n        /* \"#utility.yul\":1578:1598   */\n      tag_129\n      tag_69\n      jump\t// in\n    tag_129:\n        /* \"#utility.yul\":1568:1598   */\n      swap1\n      pop\n        /* \"#utility.yul\":1607:1640   */\n      tag_130\n        /* \"#utility.yul\":1635:1639   */\n      dup3\n        /* \"#utility.yul\":1627:1633   */\n      dup3\n        /* \"#utility.yul\":1607:1640   */\n      tag_79\n      jump\t// in\n    tag_130:\n        /* \"#utility.yul\":1517:1646   */\n      swap2\n      swap1\n      pop\n      jump\t// out\n        /* \"#utility.yul\":1652:1960   */\n    tag_81:\n        /* \"#utility.yul\":1714:1718   */\n      0x00\n        /* \"#utility.yul\":1804:1822   */\n      0xffffffffffffffff\n        /* \"#utility.yul\":1796:1802   */\n      dup3\n        /* \"#utility.yul\":1793:1823   */\n      gt\n        /* \"#utility.yul\":1790:1846   */\n      iszero\n      tag_132\n      jumpi\n        /* \"#utility.yul\":1826:1844   */\n      tag_133\n      tag_78\n      jump\t// in\n    tag_133:\n        /* \"#utility.yul\":1790:1846   */\n    tag_132:\n        /* \"#utility.yul\":1864:1893   */\n      tag_134\n        /* \"#utility.yul\":1886:1892   */\n      dup3\n        /* \"#utility.yul\":1864:1893   */\n      tag_77\n      jump\t// in\n    tag_134:\n        /* \"#utility.yul\":1856:1893   */\n      swap1\n      pop\n        /* \"#utility.yul\":1948:1952   */\n      0x20\n        /* \"#utility.yul\":1942:1946   */\n      dup2\n        /* \"#utility.yul\":1938:1953   */\n      add\n        /* \"#utility.yul\":1930:1953   */\n      swap1\n      pop\n        /* \"#utility.yul\":1652:1960   */\n      swap2\n      swap1\n      pop\n      jump\t// out\n        /* \"#utility.yul\":1966:2114   */\n    tag_82:\n        /* \"#utility.yul\":2064:2070   */\n      dup3\n        /* \"#utility.yul\":2059:2062   */\n      dup2\n        /* \"#utility.yul\":2054:2057   */\n      dup4\n        /* \"#utility.yul\":2041:2071   */\n      calldatacopy\n        /* \"#utility.yul\":2105:2106   */\n      0x00\n        /* \"#utility.yul\":2096:2102   */\n      dup4\n        /* \"#utility.yul\":2091:2094   */\n      dup4\n        /* \"#utility.yul\":2087:2103   */\n      add\n        /* \"#utility.yul\":2080:2107   */\n      mstore\n        /* \"#utility.yul\":1966:2114   */\n      pop\n      pop\n      pop\n      jump\t// out\n        /* \"#utility.yul\":2120:2545   */\n    tag_83:\n        /* \"#utility.yul\":2198:2203   */\n      0x00\n        /* \"#utility.yul\":2223:2289   */\n      tag_137\n        /* \"#utility.yul\":2239:2288   */\n      tag_138\n        /* \"#utility.yul\":2281:2287   */\n      dup5\n        /* \"#utility.yul\":2239:2288   */\n      tag_81\n      jump\t// in\n    tag_138:\n        /* \"#utility.yul\":2223:2289   */\n      tag_80\n      jump\t// in\n    tag_137:\n        /* \"#utility.yul\":2214:2289   */\n      swap1\n      pop\n        /* \"#utility.yul\":2312:2318   */\n      dup3\n        /* \"#utility.yul\":2305:2310   */\n      dup2\n        /* \"#utility.yul\":2298:2319   */\n      mstore\n        /* \"#utility.yul\":2350:2354   */\n      0x20\n        /* \"#utility.yul\":2343:2348   */\n      dup2\n        /* \"#utility.yul\":2339:2355   */\n      add\n        /* \"#utility.yul\":2388:2391   */\n      dup5\n        /* \"#utility.yul\":2379:2385   */\n      dup5\n        /* \"#utility.yul\":2374:2377   */\n      dup5\n        /* \"#utility.yul\":2370:2386   */\n      add\n        /* \"#utility.yul\":2367:2392   */\n      gt\n        /* \"#utility.yul\":2364:2476   */\n      iszero\n      tag_139\n      jumpi\n        /* \"#utility.yul\":2395:2474   */\n      tag_140\n      tag_76\n      jump\t// in\n    tag_140:\n        /* \"#utility.yul\":2364:2476   */\n    tag_139:\n        /* \"#utility.yul\":2485:2539   */\n      tag_141\n        /* \"#utility.yul\":2532:2538   */\n      dup5\n        /* \"#utility.yul\":2527:2530   */\n      dup3\n        /* \"#utility.yul\":2522:2525   */\n      dup6\n        /* \"#utility.yul\":2485:2539   */\n      tag_82\n      jump\t// in\n    tag_141:\n        /* \"#utility.yul\":2204:2545   */\n      pop\n        /* \"#utility.yul\":2120:2545   */\n      swap4\n      swap3\n      pop\n      pop\n      pop\n      jump\t// out\n        /* \"#utility.yul\":2565:2905   */\n    tag_84:\n        /* \"#utility.yul\":2621:2626   */\n      0x00\n        /* \"#utility.yul\":2670:2673   */\n      dup3\n        /* \"#utility.yul\":2663:2667   */\n      0x1f\n        /* \"#utility.yul\":2655:2661   */\n      dup4\n        /* \"#utility.yul\":2651:2668   */\n      add\n        /* \"#utility.yul\":2647:2674   */\n      slt\n        /* \"#utility.yul\":2637:2759   */\n      tag_143\n      jumpi\n        /* \"#utility.yul\":2678:2757   */\n      tag_144\n      tag_75\n      jump\t// in\n    tag_144:\n        /* \"#utility.yul\":2637:2759   */\n    tag_143:\n        /* \"#utility.yul\":2795:2801   */\n      dup2\n        /* \"#utility.yul\":2782:2802   */\n      calldataload\n        /* \"#utility.yul\":2820:2899   */\n      tag_145\n        /* \"#utility.yul\":2895:2898   */\n      dup5\n        /* \"#utility.yul\":2887:2893   */\n      dup3\n        /* \"#utility.yul\":2880:2884   */\n      0x20\n        /* \"#utility.yul\":2872:2878   */\n      dup7\n        /* \"#utility.yul\":2868:2885   */\n      add\n        /* \"#utility.yul\":2820:2899   */\n      tag_83\n      jump\t// in\n    tag_145:\n        /* \"#utility.yul\":2811:2899   */\n      swap2\n      pop\n        /* \"#utility.yul\":2627:2905   */\n      pop\n        /* \"#utility.yul\":2565:2905   */\n      swap3\n      swap2\n      pop\n      pop\n      jump\t// out\n        /* \"#utility.yul\":2911:3890   */\n    tag_11:\n        /* \"#utility.yul\":3008:3014   */\n      0x00\n        /* \"#utility.yul\":3016:3022   */\n      dup1\n        /* \"#utility.yul\":3024:3030   */\n      0x00\n        /* \"#utility.yul\":3073:3075   */\n      0x60\n        /* \"#utility.yul\":3061:3070   */\n      dup5\n        /* \"#utility.yul\":3052:3059   */\n      dup7\n        /* \"#utility.yul\":3048:3071   */\n      sub\n        /* \"#utility.yul\":3044:3076   */\n      slt\n        /* \"#utility.yul\":3041:3160   */\n      iszero\n      tag_147\n      jumpi\n        /* \"#utility.yul\":3079:3158   */\n      tag_148\n      tag_70\n      jump\t// in\n    tag_148:\n        /* \"#utility.yul\":3041:3160   */\n    tag_147:\n        /* \"#utility.yul\":3199:3200   */\n      0x00\n        /* \"#utility.yul\":3224:3277   */\n      tag_149\n        /* \"#utility.yul\":3269:3276   */\n      dup7\n        /* \"#utility.yul\":3260:3266   */\n      dup3\n        /* \"#utility.yul\":3249:3258   */\n      dup8\n        /* \"#utility.yul\":3245:3267   */\n      add\n        /* \"#utility.yul\":3224:3277   */\n      tag_74\n      jump\t// in\n    tag_149:\n        /* \"#utility.yul\":3214:3277   */\n      swap4\n      pop\n        /* \"#utility.yul\":3170:3287   */\n      pop\n        /* \"#utility.yul\":3354:3356   */\n      0x20\n        /* \"#utility.yul\":3343:3352   */\n      dup5\n        /* \"#utility.yul\":3339:3357   */\n      add\n        /* \"#utility.yul\":3326:3358   */\n      calldataload\n        /* \"#utility.yul\":3385:3403   */\n      0xffffffffffffffff\n        /* \"#utility.yul\":3377:3383   */\n      dup2\n        /* \"#utility.yul\":3374:3404   */\n      gt\n        /* \"#utility.yul\":3371:3488   */\n      iszero\n      tag_150\n      jumpi\n        /* \"#utility.yul\":3407:3486   */\n      tag_151\n      tag_71\n      jump\t// in\n    tag_151:\n        /* \"#utility.yul\":3371:3488   */\n    tag_150:\n        /* \"#utility.yul\":3512:3575   */\n      tag_152\n        /* \"#utility.yul\":3567:3574   */\n      dup7\n        /* \"#utility.yul\":3558:3564   */\n      dup3\n        /* \"#utility.yul\":3547:3556   */\n      dup8\n        /* \"#utility.yul\":3543:3565   */\n      add\n        /* \"#utility.yul\":3512:3575   */\n      tag_84\n      jump\t// in\n    tag_152:\n        /* \"#utility.yul\":3502:3575   */\n      swap3\n      pop\n        /* \"#utility.yul\":3297:3585   */\n      pop\n        /* \"#utility.yul\":3652:3654   */\n      0x40\n        /* \"#utility.yul\":3641:3650   */\n      dup5\n        /* \"#utility.yul\":3637:3655   */\n      add\n        /* \"#utility.yul\":3624:3656   */\n      calldataload\n        /* \"#utility.yul\":3683:3701   */\n      0xffffffffffffffff\n        /* \"#utility.yul\":3675:3681   */\n      dup2\n        /* \"#utility.yul\":3672:3702   */\n      gt\n        /* \"#utility.yul\":3669:3786   */\n      iszero\n      tag_153\n      jumpi\n        /* \"#utility.yul\":3705:3784   */\n      tag_154\n      tag_71\n      jump\t// in\n    tag_154:\n        /* \"#utility.yul\":3669:3786   */\n    tag_153:\n        /* \"#utility.yul\":3810:3873   */\n      tag_155\n        /* \"#utility.yul\":3865:3872   */\n      dup7\n        /* \"#utility.yul\":3856:3862   */\n      dup3\n        /* \"#utility.yul\":3845:3854   */\n      dup8\n        /* \"#utility.yul\":3841:3863   */\n      add\n        /* \"#utility.yul\":3810:3873   */\n      tag_84\n      jump\t// in\n    tag_155:\n        /* \"#utility.yul\":3800:3873   */\n      swap2\n      pop\n        /* \"#utility.yul\":3595:3883   */\n      pop\n        /* \"#utility.yul\":2911:3890   */\n      swap3\n      pop\n      swap3\n      pop\n      swap3\n      jump\t// out\n        /* \"#utility.yul\":3896:4022   */\n    tag_85:\n        /* \"#utility.yul\":3933:3940   */\n      0x00\n        /* \"#utility.yul\":3973:4015   */\n      0xffffffffffffffffffffffffffffffffffffffff\n        /* \"#utility.yul\":3966:3971   */\n      dup3\n        /* \"#utility.yul\":3962:4016   */\n      and\n        /* \"#utility.yul\":3951:4016   */\n      swap1\n      pop\n        /* \"#utility.yul\":3896:4022   */\n      swap2\n      swap1\n      pop\n      jump\t// out\n        /* \"#utility.yul\":4028:4124   */\n    tag_86:\n        /* \"#utility.yul\":4065:4072   */\n      0x00\n        /* \"#utility.yul\":4094:4118   */\n      tag_158\n        /* \"#utility.yul\":4112:4117   */\n      dup3\n        /* \"#utility.yul\":4094:4118   */\n      tag_85\n      jump\t// in\n    tag_158:\n        /* \"#utility.yul\":4083:4118   */\n      swap1\n      pop\n        /* \"#utility.yul\":4028:4124   */\n      swap2\n      swap1\n      pop\n      jump\t// out\n        /* \"#utility.yul\":4130:4252   */\n    tag_87:\n        /* \"#utility.yul\":4203:4227   */\n      tag_160\n        /* \"#utility.yul\":4221:4226   */\n      dup2\n        /* \"#utility.yul\":4203:4227   */\n      tag_86\n      jump\t// in\n    tag_160:\n        /* \"#utility.yul\":4196:4201   */\n      dup2\n        /* \"#utility.yul\":4193:4228   */\n      eq\n        /* \"#utility.yul\":4183:4246   */\n      tag_161\n      jumpi\n        /* \"#utility.yul\":4242:4243   */\n      0x00\n        /* \"#utility.yul\":4239:4240   */\n      dup1\n        /* \"#utility.yul\":4232:4244   */\n      revert\n        /* \"#utility.yul\":4183:4246   */\n    tag_161:\n        /* \"#utility.yul\":4130:4252   */\n      pop\n      jump\t// out\n        /* \"#utility.yul\":4258:4397   */\n    tag_88:\n        /* \"#utility.yul\":4304:4309   */\n      0x00\n        /* \"#utility.yul\":4342:4348   */\n      dup2\n        /* \"#utility.yul\":4329:4349   */\n      calldataload\n        /* \"#utility.yul\":4320:4349   */\n      swap1\n      pop\n        /* \"#utility.yul\":4358:4391   */\n      tag_163\n        /* \"#utility.yul\":4385:4390   */\n      dup2\n        /* \"#utility.yul\":4358:4391   */\n      tag_87\n      jump\t// in\n    tag_163:\n        /* \"#utility.yul\":4258:4397   */\n      swap3\n      swap2\n      pop\n      pop\n      jump\t// out\n        /* \"#utility.yul\":4403:4877   */\n    tag_15:\n        /* \"#utility.yul\":4471:4477   */\n      0x00\n        /* \"#utility.yul\":4479:4485   */\n      dup1\n        /* \"#utility.yul\":4528:4530   */\n      0x40\n        /* \"#utility.yul\":4516:4525   */\n      dup4\n        /* \"#utility.yul\":4507:4514   */\n      dup6\n        /* \"#utility.yul\":4503:4526   */\n      sub\n        /* \"#utility.yul\":4499:4531   */\n      slt\n        /* \"#utility.yul\":4496:4615   */\n      iszero\n      tag_165\n      jumpi\n        /* \"#utility.yul\":4534:4613   */\n      tag_166\n      tag_70\n      jump\t// in\n    tag_166:\n        /* \"#utility.yul\":4496:4615   */\n    tag_165:\n        /* \"#utility.yul\":4654:4655   */\n      0x00\n        /* \"#utility.yul\":4679:4732   */\n      tag_167\n        /* \"#utility.yul\":4724:4731   */\n      dup6\n        /* \"#utility.yul\":4715:4721   */\n      dup3\n        /* \"#utility.yul\":4704:4713   */\n      dup7\n        /* \"#utility.yul\":4700:4722   */\n      add\n        /* \"#utility.yul\":4679:4732   */\n      tag_88\n      jump\t// in\n    tag_167:\n        /* \"#utility.yul\":4669:4732   */\n      swap3\n      pop\n        /* \"#utility.yul\":4625:4742   */\n      pop\n        /* \"#utility.yul\":4781:4783   */\n      0x20\n        /* \"#utility.yul\":4807:4860   */\n      tag_168\n        /* \"#utility.yul\":4852:4859   */\n      dup6\n        /* \"#utility.yul\":4843:4849   */\n      dup3\n        /* \"#utility.yul\":4832:4841   */\n      dup7\n        /* \"#utility.yul\":4828:4850   */\n      add\n        /* \"#utility.yul\":4807:4860   */\n      tag_74\n      jump\t// in\n    tag_168:\n        /* \"#utility.yul\":4797:4860   */\n      swap2\n      pop\n        /* \"#utility.yul\":4752:4870   */\n      pop\n        /* \"#utility.yul\":4403:4877   */\n      swap3\n      pop\n      swap3\n      swap1\n      pop\n      jump\t// out\n        /* \"#utility.yul\":4883:4982   */\n    tag_89:\n        /* \"#utility.yul\":4935:4941   */\n      0x00\n        /* \"#utility.yul\":4969:4974   */\n      dup2\n        /* \"#utility.yul\":4963:4975   */\n      mload\n        /* \"#utility.yul\":4953:4975   */\n      swap1\n      pop\n        /* \"#utility.yul\":4883:4982   */\n      swap2\n      swap1\n      pop\n      jump\t// out\n        /* \"#utility.yul\":4988:5157   */\n    tag_90:\n        /* \"#utility.yul\":5072:5083   */\n      0x00\n        /* \"#utility.yul\":5106:5112   */\n      dup3\n        /* \"#utility.yul\":5101:5104   */\n      dup3\n        /* \"#utility.yul\":5094:5113   */\n      mstore\n        /* \"#utility.yul\":5146:5150   */\n      0x20\n        /* \"#utility.yul\":5141:5144   */\n      dup3\n        /* \"#utility.yul\":5137:5151   */\n      add\n        /* \"#utility.yul\":5122:5151   */\n      swap1\n      pop\n        /* \"#utility.yul\":4988:5157   */\n      swap3\n      swap2\n      pop\n      pop\n      jump\t// out\n        /* \"#utility.yul\":5163:5302   */\n    tag_91:\n        /* \"#utility.yul\":5252:5258   */\n      dup3\n        /* \"#utility.yul\":5247:5250   */\n      dup2\n        /* \"#utility.yul\":5242:5245   */\n      dup4\n        /* \"#utility.yul\":5236:5259   */\n      mcopy\n        /* \"#utility.yul\":5293:5294   */\n      0x00\n        /* \"#utility.yul\":5284:5290   */\n      dup4\n        /* \"#utility.yul\":5279:5282   */\n      dup4\n        /* \"#utility.yul\":5275:5291   */\n      add\n        /* \"#utility.yul\":5268:5295   */\n      mstore\n        /* \"#utility.yul\":5163:5302   */\n      pop\n      pop\n      pop\n      jump\t// out\n        /* \"#utility.yul\":5308:5685   */\n    tag_92:\n        /* \"#utility.yul\":5396:5399   */\n      0x00\n        /* \"#utility.yul\":5424:5463   */\n      tag_173\n        /* \"#utility.yul\":5457:5462   */\n      dup3\n        /* \"#utility.yul\":5424:5463   */\n      tag_89\n      jump\t// in\n    tag_173:\n        /* \"#utility.yul\":5479:5550   */\n      tag_174\n        /* \"#utility.yul\":5543:5549   */\n      dup2\n        /* \"#utility.yul\":5538:5541   */\n      dup6\n        /* \"#utility.yul\":5479:5550   */\n      tag_90\n      jump\t// in\n    tag_174:\n        /* \"#utility.yul\":5472:5550   */\n      swap4\n      pop\n        /* \"#utility.yul\":5559:5624   */\n      tag_175\n        /* \"#utility.yul\":5617:5623   */\n      dup2\n        /* \"#utility.yul\":5612:5615   */\n      dup6\n        /* \"#utility.yul\":5605:5609   */\n      0x20\n        /* \"#utility.yul\":5598:5603   */\n      dup7\n        /* \"#utility.yul\":5594:5610   */\n      add\n        /* \"#utility.yul\":5559:5624   */\n      tag_91\n      jump\t// in\n    tag_175:\n        /* \"#utility.yul\":5649:5678   */\n      tag_176\n        /* \"#utility.yul\":5671:5677   */\n      dup2\n        /* \"#utility.yul\":5649:5678   */\n      tag_77\n      jump\t// in\n    tag_176:\n        /* \"#utility.yul\":5644:5647   */\n      dup5\n        /* \"#utility.yul\":5640:5679   */\n      add\n        /* \"#utility.yul\":5633:5679   */\n      swap2\n      pop\n        /* \"#utility.yul\":5400:5685   */\n      pop\n        /* \"#utility.yul\":5308:5685   */\n      swap3\n      swap2\n      pop\n      pop\n      jump\t// out\n        /* \"#utility.yul\":5691:6205   */\n    tag_18:\n        /* \"#utility.yul\":5852:5856   */\n      0x00\n        /* \"#utility.yul\":5890:5892   */\n      0x40\n        /* \"#utility.yul\":5879:5888   */\n      dup3\n        /* \"#utility.yul\":5875:5893   */\n      add\n        /* \"#utility.yul\":5867:5893   */\n      swap1\n      pop\n        /* \"#utility.yul\":5939:5948   */\n      dup2\n        /* \"#utility.yul\":5933:5937   */\n      dup2\n        /* \"#utility.yul\":5929:5949   */\n      sub\n        /* \"#utility.yul\":5925:5926   */\n      0x00\n        /* \"#utility.yul\":5914:5923   */\n      dup4\n        /* \"#utility.yul\":5910:5927   */\n      add\n        /* \"#utility.yul\":5903:5950   */\n      mstore\n        /* \"#utility.yul\":5967:6045   */\n      tag_178\n        /* \"#utility.yul\":6040:6044   */\n      dup2\n        /* \"#utility.yul\":6031:6037   */\n      dup6\n        /* \"#utility.yul\":5967:6045   */\n      tag_92\n      jump\t// in\n    tag_178:\n        /* \"#utility.yul\":5959:6045   */\n      swap1\n      pop\n        /* \"#utility.yul\":6092:6101   */\n      dup2\n        /* \"#utility.yul\":6086:6090   */\n      dup2\n        /* \"#utility.yul\":6082:6102   */\n      sub\n        /* \"#utility.yul\":6077:6079   */\n      0x20\n        /* \"#utility.yul\":6066:6075   */\n      dup4\n        /* \"#utility.yul\":6062:6080   */\n      add\n        /* \"#utility.yul\":6055:6103   */\n      mstore\n        /* \"#utility.yul\":6120:6198   */\n      tag_179\n        /* \"#utility.yul\":6193:6197   */\n      dup2\n        /* \"#utility.yul\":6184:6190   */\n      dup5\n        /* \"#utility.yul\":6120:6198   */\n      tag_92\n      jump\t// in\n    tag_179:\n        /* \"#utility.yul\":6112:6198   */\n      swap1\n      pop\n        /* \"#utility.yul\":5691:6205   */\n      swap4\n      swap3\n      pop\n      pop\n      pop\n      jump\t// out\n        /* \"#utility.yul\":6211:6540   */\n    tag_21:\n        /* \"#utility.yul\":6270:6276   */\n      0x00\n        /* \"#utility.yul\":6319:6321   */\n      0x20\n        /* \"#utility.yul\":6307:6316   */\n      dup3\n        /* \"#utility.yul\":6298:6305   */\n      dup5\n        /* \"#utility.yul\":6294:6317   */\n      sub\n        /* \"#utility.yul\":6290:6322   */\n      slt\n        /* \"#utility.yul\":6287:6406   */\n      iszero\n      tag_181\n      jumpi\n        /* \"#utility.yul\":6325:6404   */\n      tag_182\n      tag_70\n      jump\t// in\n    tag_182:\n        /* \"#utility.yul\":6287:6406   */\n    tag_181:\n        /* \"#utility.yul\":6445:6446   */\n      0x00\n        /* \"#utility.yul\":6470:6523   */\n      tag_183\n        /* \"#utility.yul\":6515:6522   */\n      dup5\n        /* \"#utility.yul\":6506:6512   */\n      dup3\n        /* \"#utility.yul\":6495:6504   */\n      dup6\n        /* \"#utility.yul\":6491:6513   */\n      add\n        /* \"#utility.yul\":6470:6523   */\n      tag_74\n      jump\t// in\n    tag_183:\n        /* \"#utility.yul\":6460:6523   */\n      swap2\n      pop\n        /* \"#utility.yul\":6416:6533   */\n      pop\n        /* \"#utility.yul\":6211:6540   */\n      swap3\n      swap2\n      pop\n      pop\n      jump\t// out\n        /* \"#utility.yul\":6546:6859   */\n    tag_24:\n        /* \"#utility.yul\":6659:6663   */\n      0x00\n        /* \"#utility.yul\":6697:6699   */\n      0x20\n        /* \"#utility.yul\":6686:6695   */\n      dup3\n        /* \"#utility.yul\":6682:6700   */\n      add\n        /* \"#utility.yul\":6674:6700   */\n      swap1\n      pop\n        /* \"#utility.yul\":6746:6755   */\n      dup2\n        /* \"#utility.yul\":6740:6744   */\n      dup2\n        /* \"#utility.yul\":6736:6756   */\n      sub\n        /* \"#utility.yul\":6732:6733   */\n      0x00\n        /* \"#utility.yul\":6721:6730   */\n      dup4\n        /* \"#utility.yul\":6717:6734   */\n      add\n        /* \"#utility.yul\":6710:6757   */\n      mstore\n        /* \"#utility.yul\":6774:6852   */\n      tag_185\n        /* \"#utility.yul\":6847:6851   */\n      dup2\n        /* \"#utility.yul\":6838:6844   */\n      dup5\n        /* \"#utility.yul\":6774:6852   */\n      tag_92\n      jump\t// in\n    tag_185:\n        /* \"#utility.yul\":6766:6852   */\n      swap1\n      pop\n        /* \"#utility.yul\":6546:6859   */\n      swap3\n      swap2\n      pop\n      pop\n      jump\t// out\n        /* \"#utility.yul\":6865:6983   */\n    tag_93:\n        /* \"#utility.yul\":6952:6976   */\n      tag_187\n        /* \"#utility.yul\":6970:6975   */\n      dup2\n        /* \"#utility.yul\":6952:6976   */\n      tag_86\n      jump\t// in\n    tag_187:\n        /* \"#utility.yul\":6947:6950   */\n      dup3\n        /* \"#utility.yul\":6940:6977   */\n      mstore\n        /* \"#utility.yul\":6865:6983   */\n      pop\n      pop\n      jump\t// out\n        /* \"#utility.yul\":6989:7211   */\n    tag_35:\n        /* \"#utility.yul\":7082:7086   */\n      0x00\n        /* \"#utility.yul\":7120:7122   */\n      0x20\n        /* \"#utility.yul\":7109:7118   */\n      dup3\n        /* \"#utility.yul\":7105:7123   */\n      add\n        /* \"#utility.yul\":7097:7123   */\n      swap1\n      pop\n        /* \"#utility.yul\":7133:7204   */\n      tag_189\n        /* \"#utility.yul\":7201:7202   */\n      0x00\n        /* \"#utility.yul\":7190:7199   */\n      dup4\n        /* \"#utility.yul\":7186:7203   */\n      add\n        /* \"#utility.yul\":7177:7183   */\n      dup5\n        /* \"#utility.yul\":7133:7204   */\n      tag_93\n      jump\t// in\n    tag_189:\n        /* \"#utility.yul\":6989:7211   */\n      swap3\n      swap2\n      pop\n      pop\n      jump\t// out\n        /* \"#utility.yul\":7217:7397   */\n    tag_94:\n        /* \"#utility.yul\":7265:7342   */\n      0x4e487b7100000000000000000000000000000000000000000000000000000000\n        /* \"#utility.yul\":7262:7263   */\n      0x00\n        /* \"#utility.yul\":7255:7343   */\n      mstore\n        /* \"#utility.yul\":7362:7366   */\n      0x22\n        /* \"#utility.yul\":7359:7360   */\n      0x04\n        /* \"#utility.yul\":7352:7367   */\n      mstore\n        /* \"#utility.yul\":7386:7390   */\n      0x24\n        /* \"#utility.yul\":7383:7384   */\n      0x00\n        /* \"#utility.yul\":7376:7391   */\n      revert\n        /* \"#utility.yul\":7403:7723   */\n    tag_41:\n        /* \"#utility.yul\":7447:7453   */\n      0x00\n        /* \"#utility.yul\":7484:7485   */\n      0x02\n        /* \"#utility.yul\":7478:7482   */\n      dup3\n        /* \"#utility.yul\":7474:7486   */\n      div\n        /* \"#utility.yul\":7464:7486   */\n      swap1\n      pop\n        /* \"#utility.yul\":7531:7532   */\n      0x01\n        /* \"#utility.yul\":7525:7529   */\n      dup3\n        /* \"#utility.yul\":7521:7533   */\n      and\n        /* \"#utility.yul\":7552:7570   */\n      dup1\n        /* \"#utility.yul\":7542:7623   */\n      tag_192\n      jumpi\n        /* \"#utility.yul\":7608:7612   */\n      0x7f\n        /* \"#utility.yul\":7600:7606   */\n      dup3\n        /* \"#utility.yul\":7596:7613   */\n      and\n        /* \"#utility.yul\":7586:7613   */\n      swap2\n      pop\n        /* \"#utility.yul\":7542:7623   */\n    tag_192:\n        /* \"#utility.yul\":7670:7672   */\n      0x20\n        /* \"#utility.yul\":7662:7668   */\n      dup3\n        /* \"#utility.yul\":7659:7673   */\n      lt\n        /* \"#utility.yul\":7639:7657   */\n      dup2\n        /* \"#utility.yul\":7636:7674   */\n      sub\n        /* \"#utility.yul\":7633:7717   */\n      tag_193\n      jumpi\n        /* \"#utility.yul\":7689:7707   */\n      tag_194\n      tag_94\n      jump\t// in\n    tag_194:\n        /* \"#utility.yul\":7633:7717   */\n    tag_193:\n        /* \"#utility.yul\":7454:7723   */\n      pop\n        /* \"#utility.yul\":7403:7723   */\n      swap2\n      swap1\n      pop\n      jump\t// out\n        /* \"#utility.yul\":7729:7870   */\n    tag_95:\n        /* \"#utility.yul\":7778:7782   */\n      0x00\n        /* \"#utility.yul\":7801:7804   */\n      dup2\n        /* \"#utility.yul\":7793:7804   */\n      swap1\n      pop\n        /* \"#utility.yul\":7824:7827   */\n      dup2\n        /* \"#utility.yul\":7821:7822   */\n      0x00\n        /* \"#utility.yul\":7814:7828   */\n      mstore\n        /* \"#utility.yul\":7858:7862   */\n      0x20\n        /* \"#utility.yul\":7855:7856   */\n      0x00\n        /* \"#utility.yul\":7845:7863   */\n      keccak256\n        /* \"#utility.yul\":7837:7863   */\n      swap1\n      pop\n        /* \"#utility.yul\":7729:7870   */\n      swap2\n      swap1\n      pop\n      jump\t// out\n        /* \"#utility.yul\":7876:7969   */\n    tag_96:\n        /* \"#utility.yul\":7913:7919   */\n      0x00\n        /* \"#utility.yul\":7960:7962   */\n      0x20\n        /* \"#utility.yul\":7955:7957   */\n      0x1f\n        /* \"#utility.yul\":7948:7953   */\n      dup4\n        /* \"#utility.yul\":7944:7958   */\n      add\n        /* \"#utility.yul\":7940:7963   */\n      div\n        /* \"#utility.yul\":7930:7963   */\n      swap1\n      pop\n        /* \"#utility.yul\":7876:7969   */\n      swap2\n      swap1\n      pop\n      jump\t// out\n        /* \"#utility.yul\":7975:8082   */\n    tag_97:\n        /* \"#utility.yul\":8019:8027   */\n      0x00\n        /* \"#utility.yul\":8069:8074   */\n      dup3\n        /* \"#utility.yul\":8063:8067   */\n      dup3\n        /* \"#utility.yul\":8059:8075   */\n      shl\n        /* \"#utility.yul\":8038:8075   */\n      swap1\n      pop\n        /* \"#utility.yul\":7975:8082   */\n      swap3\n      swap2\n      pop\n      pop\n      jump\t// out\n        /* \"#utility.yul\":8088:8481   */\n    tag_98:\n        /* \"#utility.yul\":8157:8163   */\n      0x00\n        /* \"#utility.yul\":8207:8208   */\n      0x08\n        /* \"#utility.yul\":8195:8205   */\n      dup4\n        /* \"#utility.yul\":8191:8209   */\n      mul\n        /* \"#utility.yul\":8230:8327   */\n      tag_199\n        /* \"#utility.yul\":8260:8326   */\n      0xffffffffffffffffffffffffffffffffffffffffffffffffffffffffffffffff\n        /* \"#utility.yul\":8249:8258   */\n      dup3\n        /* \"#utility.yul\":8230:8327   */\n      tag_97\n      jump\t// in\n    tag_199:\n        /* \"#utility.yul\":8348:8387   */\n      tag_200\n        /* \"#utility.yul\":8378:8386   */\n      dup7\n        /* \"#utility.yul\":8367:8376   */\n      dup4\n        /* \"#utility.yul\":8348:8387   */\n      tag_97\n      jump\t// in\n    tag_200:\n        /* \"#utility.yul\":8336:8387   */\n      swap6\n      pop\n        /* \"#utility.yul\":8420:8424   */\n      dup1\n        /* \"#utility.yul\":8416:8425   */\n      not\n        /* \"#utility.yul\":8409:8414   */\n      dup5\n        /* \"#utility.yul\":8405:8426   */\n      and\n        /* \"#utility.yul\":8396:8426   */\n      swap4\n      pop\n        /* \"#utility.yul\":8469:8473   */\n      dup1\n        /* \"#utility.yul\":8459:8467   */\n      dup7\n        /* \"#utility.yul\":8455:8474   */\n      and\n        /* \"#utility.yul\":8448:8453   */\n      dup5\n        /* \"#utility.yul\":8445:8475   */\n      or\n        /* \"#utility.yul\":8435:8475   */\n      swap3\n      pop\n        /* \"#utility.yul\":8164:8481   */\n      pop\n      pop\n        /* \"#utility.yul\":8088:8481   */\n      swap4\n      swap3\n      pop\n      pop\n      pop\n      jump\t// out\n        /* \"#utility.yul\":8487:8547   */\n    tag_99:\n        /* \"#utility.yul\":8515:8518   */\n      0x00\n        /* \"#utility.yul\":8536:8541   */\n      dup2\n        /* \"#utility.yul\":8529:8541   */\n      swap1\n      pop\n        /* \"#utility.yul\":8487:8547   */\n      swap2\n      swap1\n      pop\n      jump\t// out\n        /* \"#utility.yul\":8553:8695   */\n    tag_100:\n        /* \"#utility.yul\":8603:8612   */\n      0x00\n        /* \"#utility.yul\":8636:8689   */\n      tag_203\n        /* \"#utility.yul\":8654:8688   */\n      tag_204\n        /* \"#utility.yul\":8663:8687   */\n      tag_205\n        /* \"#utility.yul\":8681:8686   */\n      dup5\n        /* \"#utility.yul\":8663:8687   */\n      tag_72\n      jump\t// in\n    tag_205:\n        /* \"#utility.yul\":8654:8688   */\n      tag_99\n      jump\t// in\n    tag_204:\n        /* \"#utility.yul\":8636:8689   */\n      tag_72\n      jump\t// in\n    tag_203:\n        /* \"#utility.yul\":8623:8689   */\n      swap1\n      pop\n        /* \"#utility.yul\":8553:8695   */\n      swap2\n      swap1\n      pop\n      jump\t// out\n        /* \"#utility.yul\":8701:8776   */\n    tag_101:\n        /* \"#utility.yul\":8744:8747   */\n      0x00\n        /* \"#utility.yul\":8765:8770   */\n      dup2\n        /* \"#utility.yul\":8758:8770   */\n      swap1\n      pop\n        /* \"#utility.yul\":8701:8776   */\n      swap2\n      swap1\n      pop\n      jump\t// out\n        /* \"#utility.yul\":8782:9051   */\n    tag_102:\n        /* \"#utility.yul\":8892:8931   */\n      tag_208\n        /* \"#utility.yul\":8923:8930   */\n      dup4\n        /* \"#utility.yul\":8892:8931   */\n      tag_100\n      jump\t// in\n    tag_208:\n        /* \"#utility.yul\":8953:9044   */\n      tag_209\n        /* \"#utility.yul\":9002:9043   */\n      tag_210\n        /* \"#utility.yul\":9026:9042   */\n      dup3\n        /* \"#utility.yul\":9002:9043   */\n      tag_101\n      jump\t// in\n    tag_210:\n        /* \"#utility.yul\":8994:9000   */\n      dup5\n        /* \"#utility.yul\":8987:8991   */\n      dup5\n        /* \"#utility.yul\":8981:8992   */\n      sload\n        /* \"#utility.yul\":8953:9044   */\n      tag_98\n      jump\t// in\n    tag_209:\n        /* \"#utility.yul\":8947:8951   */\n      dup3\n        /* \"#utility.yul\":8940:9045   */\n      sstore\n        /* \"#utility.yul\":8858:9051   */\n      pop\n        /* \"#utility.yul\":8782:9051   */\n      pop\n      pop\n      pop\n      jump\t// out\n        /* \"#utility.yul\":9057:9130   */\n    tag_103:\n        /* \"#utility.yul\":9102:9105   */\n      0x00\n        /* \"#utility.yul\":9057:9130   */\n      swap1\n      jump\t// out\n        /* \"#utility.yul\":9136:9325   */\n    tag_104:\n        /* \"#utility.yul\":9213:9245   */\n      tag_213\n      tag_103\n      jump\t// in\n    tag_213:\n        /* \"#utility.yul\":9254:9319   */\n      tag_214\n        /* \"#utility.yul\":9312:9318   */\n      dup2\n        /* \"#utility.yul\":9304:9310   */\n      dup5\n        /* \"#utility.yul\":9298:9302   */\n      dup5\n        /* \"#utility.yul\":9254:9319   */\n      tag_102\n      jump\t// in\n    tag_214:\n        /* \"#utility.yul\":9189:9325   */\n      pop\n        /* \"#utility.yul\":9136:9325   */\n      pop\n      pop\n      jump\t// out\n        /* \"#utility.yul\":9331:9517   */\n    tag_105:\n        /* \"#utility.yul\":9391:9511   */\n    tag_216:\n        /* \"#utility.yul\":9408:9411   */\n      dup2\n        /* \"#utility.yul\":9401:9406   */\n      dup2\n        /* \"#utility.yul\":9398:9412   */\n      lt\n        /* \"#utility.yul\":9391:9511   */\n      iszero\n      tag_218\n      jumpi\n        /* \"#utility.yul\":9462:9501   */\n      tag_219\n        /* \"#utility.yul\":9499:9500   */\n      0x00\n        /* \"#utility.yul\":9492:9497   */\n      dup3\n        /* \"#utility.yul\":9462:9501   */\n      tag_104\n      jump\t// in\n    tag_219:\n        /* \"#utility.yul\":9435:9436   */\n      0x01\n        /* \"#utility.yul\":9428:9433   */\n      dup2\n        /* \"#utility.yul\":9424:9437   */\n      add\n        /* \"#utility.yul\":9415:9437   */\n      swap1\n      pop\n        /* \"#utility.yul\":9391:9511   */\n      jump(tag_216)\n    tag_218:\n        /* \"#utility.yul\":9331:9517   */\n      pop\n      pop\n      jump\t// out\n        /* \"#utility.yul\":9523:10066   */\n    tag_106:\n        /* \"#utility.yul\":9624:9626   */\n      0x1f\n        /* \"#utility.yul\":9619:9622   */\n      dup3\n        /* \"#utility.yul\":9616:9627   */\n      gt\n        /* \"#utility.yul\":9613:10059   */\n      iszero\n      tag_221\n      jumpi\n        /* \"#utility.yul\":9658:9696   */\n      tag_222\n        /* \"#utility.yul\":9690:9695   */\n      dup2\n        /* \"#utility.yul\":9658:9696   */\n      tag_95\n      jump\t// in\n    tag_222:\n        /* \"#utility.yul\":9742:9771   */\n      tag_223\n        /* \"#utility.yul\":9760:9770   */\n      dup5\n        /* \"#utility.yul\":9742:9771   */\n      tag_96\n      jump\t// in\n    tag_223:\n        /* \"#utility.yul\":9732:9740   */\n      dup2\n        /* \"#utility.yul\":9728:9772   */\n      add\n        /* \"#utility.yul\":9925:9927   */\n      0x20\n        /* \"#utility.yul\":9913:9923   */\n      dup6\n        /* \"#utility.yul\":9910:9928   */\n      lt\n        /* \"#utility.yul\":9907:9956   */\n      iszero\n      tag_224\n      jumpi\n        /* \"#utility.yul\":9946:9954   */\n      dup2\n        /* \"#utility.yul\":9931:9954   */\n      swap1\n      pop\n        /* \"#utility.yul\":9907:9956   */\n    tag_224:\n        /* \"#utility.yul\":9969:10049   */\n      tag_225\n        /* \"#utility.yul\":10025:10047   */\n      tag_226\n        /* \"#utility.yul\":10043:10046   */\n      dup6\n        /* \"#utility.yul\":10025:10047   */\n      tag_96\n      jump\t// in\n    tag_226:\n        /* \"#utility.yul\":10015:10023   */\n      dup4\n        /* \"#utility.yul\":10011:10048   */\n      add\n        /* \"#utility.yul\":9998:10009   */\n      dup3\n        /* \"#utility.yul\":9969:10049   */\n      tag_105\n      jump\t// in\n    tag_225:\n        /* \"#utility.yul\":9628:10059   */\n      pop\n      pop\n        /* \"#utility.yul\":9613:10059   */\n    tag_221:\n        /* \"#utility.yul\":9523:10066   */\n      pop\n      pop\n      pop\n      jump\t// out\n        /* \"#utility.yul\":10072:10189   */\n    tag_107:\n        /* \"#utility.yul\":10126:10134   */\n      0x00\n        /* \"#utility.yul\":10176:10181   */\n      dup3\n        /* \"#utility.yul\":10170:10174   */\n      dup3\n        /* \"#utility.yul\":10166:10182   */\n      shr\n        /* \"#utility.yul\":10145:10182   */\n      swap1\n      pop\n        /* \"#utility.yul\":10072:10189   */\n      swap3\n      swap2\n      pop\n      pop\n      jump\t// out\n        /* \"#utility.yul\":10195:10364   */\n    tag_108:\n        /* \"#utility.yul\":10239:10245   */\n      0x00\n        /* \"#utility.yul\":10272:10323   */\n      tag_229\n        /* \"#utility.yul\":10320:10321   */\n      0x00\n        /* \"#utility.yul\":10316:10322   */\n      not\n        /* \"#utility.yul\":10308:10313   */\n      dup5\n        /* \"#utility.yul\":10305:10306   */\n      0x08\n        /* \"#utility.yul\":10301:10314   */\n      mul\n        /* \"#utility.yul\":10272:10323   */\n      tag_107\n      jump\t// in\n    tag_229:\n        /* \"#utility.yul\":10268:10324   */\n      not\n        /* \"#utility.yul\":10353:10357   */\n      dup1\n        /* \"#utility.yul\":10347:10351   */\n      dup4\n        /* \"#utility.yul\":10343:10358   */\n      and\n        /* \"#utility.yul\":10333:10358   */\n      swap2\n      pop\n        /* \"#utility.yul\":10246:10364   */\n      pop\n        /* \"#utility.yul\":10195:10364   */\n      swap3\n      swap2\n      pop\n      pop\n      jump\t// out\n        /* \"#utility.yul\":10369:10664   */\n    tag_109:\n        /* \"#utility.yul\":10445:10449   */\n      0x00\n        /* \"#utility.yul\":10591:10620   */\n      tag_231\n        /* \"#utility.yul\":10616:10619   */\n      dup4\n        /* \"#utility.yul\":10610:10614   */\n      dup4\n        /* \"#utility.yul\":10591:10620   */\n      tag_108\n      jump\t// in\n    tag_231:\n        /* \"#utility.yul\":10583:10620   */\n      swap2\n      pop\n        /* \"#utility.yul\":10653:10656   */\n      dup3\n        /* \"#utility.yul\":10650:10651   */\n      0x02\n        /* \"#utility.yul\":10646:10657   */\n      mul\n        /* \"#utility.yul\":10640:10644   */\n      dup3\n        /* \"#utility.yul\":10637:10658   */\n      or\n        /* \"#utility.yul\":10629:10658   */\n      swap1\n      pop\n        /* \"#utility.yul\":10369:10664   */\n      swap3\n      swap2\n      pop\n      pop\n      jump\t// out\n        /* \"#utility.yul\":10669:12064   */\n    tag_38:\n        /* \"#utility.yul\":10786:10823   */\n      tag_233\n        /* \"#utility.yul\":10819:10822   */\n      dup3\n        /* \"#utility.yul\":10786:10823   */\n      tag_89\n      jump\t// in\n    tag_233:\n        /* \"#utility.yul\":10888:10906   */\n      0xffffffffffffffff\n        /* \"#utility.yul\":10880:10886   */\n      dup2\n        /* \"#utility.yul\":10877:10907   */\n      gt\n        /* \"#utility.yul\":10874:10930   */\n      iszero\n      tag_234\n      jumpi\n        /* \"#utility.yul\":10910:10928   */\n      tag_235\n      tag_78\n      jump\t// in\n    tag_235:\n        /* \"#utility.yul\":10874:10930   */\n    tag_234:\n        /* \"#utility.yul\":10954:10992   */\n      tag_236\n        /* \"#utility.yul\":10986:10990   */\n      dup3\n        /* \"#utility.yul\":10980:10991   */\n      sload\n        /* \"#utility.yul\":10954:10992   */\n      tag_41\n      jump\t// in\n    tag_236:\n        /* \"#utility.yul\":11039:11106   */\n      tag_237\n        /* \"#utility.yul\":11099:11105   */\n      dup3\n        /* \"#utility.yul\":11091:11097   */\n      dup3\n        /* \"#utility.yul\":11085:11089   */\n      dup6\n        /* \"#utility.yul\":11039:11106   */\n      tag_106\n      jump\t// in\n    tag_237:\n        /* \"#utility.yul\":11133:11134   */\n      0x00\n        /* \"#utility.yul\":11157:11161   */\n      0x20\n        /* \"#utility.yul\":11144:11161   */\n      swap1\n      pop\n        /* \"#utility.yul\":11189:11191   */\n      0x1f\n        /* \"#utility.yul\":11181:11187   */\n      dup4\n        /* \"#utility.yul\":11178:11192   */\n      gt\n        /* \"#utility.yul\":11206:11207   */\n      0x01\n        /* \"#utility.yul\":11201:11819   */\n      dup2\n      eq\n      tag_239\n      jumpi\n        /* \"#utility.yul\":11863:11864   */\n      0x00\n        /* \"#utility.yul\":11880:11886   */\n      dup5\n        /* \"#utility.yul\":11877:11954   */\n      iszero\n      tag_240\n      jumpi\n        /* \"#utility.yul\":11929:11938   */\n      dup3\n        /* \"#utility.yul\":11924:11927   */\n      dup8\n        /* \"#utility.yul\":11920:11939   */\n      add\n        /* \"#utility.yul\":11914:11940   */\n      mload\n        /* \"#utility.yul\":11905:11940   */\n      swap1\n      pop\n        /* \"#utility.yul\":11877:11954   */\n    tag_240:\n        /* \"#utility.yul\":11980:12047   */\n      tag_241\n        /* \"#utility.yul\":12040:12046   */\n      dup6\n        /* \"#utility.yul\":12033:12038   */\n      dup3\n        /* \"#utility.yul\":11980:12047   */\n      tag_109\n      jump\t// in\n    tag_241:\n        /* \"#utility.yul\":11974:11978   */\n      dup7\n        /* \"#utility.yul\":11967:12048   */\n      sstore\n        /* \"#utility.yul\":11836:12058   */\n      pop\n        /* \"#utility.yul\":11171:12058   */\n      jump(tag_238)\n        /* \"#utility.yul\":11201:11819   */\n    tag_239:\n        /* \"#utility.yul\":11253:11257   */\n      0x1f\n        /* \"#utility.yul\":11249:11258   */\n      not\n        /* \"#utility.yul\":11241:11247   */\n      dup5\n        /* \"#utility.yul\":11237:11259   */\n      and\n        /* \"#utility.yul\":11287:11324   */\n      tag_242\n        /* \"#utility.yul\":11319:11323   */\n      dup7\n        /* \"#utility.yul\":11287:11324   */\n      tag_95\n      jump\t// in\n    tag_242:\n        /* \"#utility.yul\":11346:11347   */\n      0x00\n        /* \"#utility.yul\":11360:11568   */\n    tag_243:\n        /* \"#utility.yul\":11374:11381   */\n      dup3\n        /* \"#utility.yul\":11371:11372   */\n      dup2\n        /* \"#utility.yul\":11368:11382   */\n      lt\n        /* \"#utility.yul\":11360:11568   */\n      iszero\n      tag_245\n      jumpi\n        /* \"#utility.yul\":11453:11462   */\n      dup5\n        /* \"#utility.yul\":11448:11451   */\n      dup10\n        /* \"#utility.yul\":11444:11463   */\n      add\n        /* \"#utility.yul\":11438:11464   */\n      mload\n        /* \"#utility.yul\":11430:11436   */\n      dup3\n        /* \"#utility.yul\":11423:11465   */\n      sstore\n        /* \"#utility.yul\":11504:11505   */\n      0x01\n        /* \"#utility.yul\":11496:11502   */\n      dup3\n        /* \"#utility.yul\":11492:11506   */\n      add\n        /* \"#utility.yul\":11482:11506   */\n      swap2\n      pop\n        /* \"#utility.yul\":11551:11553   */\n      0x20\n        /* \"#utility.yul\":11540:11549   */\n      dup6\n        /* \"#utility.yul\":11536:11554   */\n      add\n        /* \"#utility.yul\":11523:11554   */\n      swap5\n      pop\n        /* \"#utility.yul\":11397:11401   */\n      0x20\n        /* \"#utility.yul\":11394:11395   */\n      dup2\n        /* \"#utility.yul\":11390:11402   */\n      add\n        /* \"#utility.yul\":11385:11402   */\n      swap1\n      pop\n        /* \"#utility.yul\":11360:11568   */\n      jump(tag_243)\n    tag_245:\n        /* \"#utility.yul\":11596:11602   */\n      dup7\n        /* \"#utility.yul\":11587:11594   */\n      dup4\n        /* \"#utility.yul\":11584:11603   */\n      lt\n        /* \"#utility.yul\":11581:11760   */\n      iszero\n      tag_246\n      jumpi\n        /* \"#utility.yul\":11654:11663   */\n      dup5\n        /* \"#utility.yul\":11649:11652   */\n      dup10\n        /* \"#utility.yul\":11645:11664   */\n      add\n        /* \"#utility.yul\":11639:11665   */\n      mload\n        /* \"#utility.yul\":11697:11745   */\n      tag_247\n        /* \"#utility.yul\":11739:11743   */\n      0x1f\n        /* \"#utility.yul\":11731:11737   */\n      dup10\n        /* \"#utility.yul\":11727:11744   */\n      and\n        /* \"#utility.yul\":11716:11725   */\n      dup3\n        /* \"#utility.yul\":11697:11745   */\n      tag_108\n      jump\t// in\n    tag_247:\n        /* \"#utility.yul\":11689:11695   */\n      dup4\n        /* \"#utility.yul\":11682:11746   */\n      sstore\n        /* \"#utility.yul\":11604:11760   */\n      pop\n        /* \"#utility.yul\":11581:11760   */\n    tag_246:\n        /* \"#utility.yul\":11806:11807   */\n      0x01\n        /* \"#utility.yul\":11802:11803   */\n      0x02\n        /* \"#utility.yul\":11794:11800   */\n      dup9\n        /* \"#utility.yul\":11790:11804   */\n      mul\n        /* \"#utility.yul\":11786:11808   */\n      add\n        /* \"#utility.yul\":11780:11784   */\n      dup9\n        /* \"#utility.yul\":11773:11809   */\n      sstore\n        /* \"#utility.yul\":11208:11819   */\n      pop\n      pop\n      pop\n        /* \"#utility.yul\":11171:12058   */\n    tag_238:\n      pop\n        /* \"#utility.yul\":10761:12064   */\n      pop\n      pop\n      pop\n        /* \"#utility.yul\":10669:12064   */\n      pop\n      pop\n      jump\t// out\n\n    auxdata: 0xa26469706673582212200aaa4c051a3c0f905b3e8b5e35936de6ff4895c4c88bfa24b8e11348371d5f0f64736f6c634300081a0033\n}\n",
				"bytecode": {
					"linkReferences": {},
					"object": "60806040525f600155348015610013575f80fd5b50335f806101000a81548173ffffffffffffffffffffffffffffffffffffffff021916908373ffffffffffffffffffffffffffffffffffffffff1602179055506040518060400160405280600581526020017f506573686f00000000000000000000000000000000000000000000000000000081525060025f600181526020019081526020015f2090816100a7919061033c565b506040518060400160405280600581526020017f476f73686f00000000000000000000000000000000000000000000000000000081525060025f600281526020019081526020015f2090816100fc919061033c565b5061040b565b5f81519050919050565b7f4e487b71000000000000000000000000000000000000000000000000000000005f52604160045260245ffd5b7f4e487b71000000000000000000000000000000000000000000000000000000005f52602260045260245ffd5b5f600282049050600182168061017d57607f821691505b6020821081036101905761018f610139565b5b50919050565b5f819050815f5260205f209050919050565b5f6020601f8301049050919050565b5f82821b905092915050565b5f600883026101f27fffffffffffffffffffffffffffffffffffffffffffffffffffffffffffffffff826101b7565b6101fc86836101b7565b95508019841693508086168417925050509392505050565b5f819050919050565b5f819050919050565b5f61024061023b61023684610214565b61021d565b610214565b9050919050565b5f819050919050565b61025983610226565b61026d61026582610247565b8484546101c3565b825550505050565b5f90565b610281610275565b61028c818484610250565b505050565b5b818110156102af576102a45f82610279565b600181019050610292565b5050565b601f8211156102f4576102c581610196565b6102ce846101a8565b810160208510156102dd578190505b6102f16102e9856101a8565b830182610291565b50505b505050565b5f82821c905092915050565b5f6103145f19846008026102f9565b1980831691505092915050565b5f61032c8383610305565b9150826002028217905092915050565b61034582610102565b67ffffffffffffffff81111561035e5761035d61010c565b5b6103688254610166565b6103738282856102b3565b5f60209050601f8311600181146103a4575f8415610392578287015190505b61039c8582610321565b865550610403565b601f1984166103b286610196565b5f5b828110156103d9578489015182556001820191506020850194506020810190506103b4565b868310156103f657848901516103f2601f891682610305565b8355505b6001600288020188555050505b505050505050565b610bff806104185f395ff3fe608060405234801561000f575f80fd5b5060043610610060575f3560e01c8063028414f21461006457806327d3553f146100805780634622ab03146100b1578063493ec707146100e157806368744046146100fd5780638da5cb5b1461012e575b5f80fd5b61007e600480360381019061007991906106d8565b61014c565b005b61009a600480360381019061009591906107ba565b6101a4565b6040516100a8929190610858565b60405180910390f35b6100cb60048036038101906100c6919061088d565b6102db565b6040516100d891906108b8565b60405180910390f35b6100fb60048036038101906100f691906106d8565b610376565b005b6101176004803603810190610112919061088d565b610409565b604051610125929190610858565b60405180910390f35b610136610535565b60405161014391906108e7565b60405180910390f35b60405180604001604052808381526020018281525060035f8581526020019081526020015f205f820151815f0190816101859190610afa565b50602082015181600101908161019b9190610afa565b50905050505050565b6004602052815f5260405f20602052805f5260405f205f9150915050805f0180546101ce9061092d565b80601f01602080910402602001604051908101604052809291908181526020018280546101fa9061092d565b80156102455780601f1061021c57610100808354040283529160200191610245565b820191905f5260205f20905b81548152906001019060200180831161022857829003601f168201915b50505050509080600101805461025a9061092d565b80601f01602080910402602001604051908101604052809291908181526020018280546102869061092d565b80156102d15780601f106102a8576101008083540402835291602001916102d1565b820191905f5260205f20905b8154815290600101906020018083116102b457829003601f168201915b5050505050905082565b6002602052805f5260405f205f9150905080546102f79061092d565b80601f01602080910402602001604051908101604052809291908181526020018280546103239061092d565b801561036e5780601f106103455761010080835404028352916020019161036e565b820191905f5260205f20905b81548152906001019060200180831161035157829003601f168201915b505050505081565b60405180604001604052808381526020018281525060045f3373ffffffffffffffffffffffffffffffffffffffff1673ffffffffffffffffffffffffffffffffffffffff1681526020019081526020015f205f8581526020019081526020015f205f820151815f0190816103ea9190610afa565b5060208201518160010190816104009190610afa565b50905050505050565b6003602052805f5260405f205f91509050805f0180546104289061092d565b80601f01602080910402602001604051908101604052809291908181526020018280546104549061092d565b801561049f5780601f106104765761010080835404028352916020019161049f565b820191905f5260205f20905b81548152906001019060200180831161048257829003601f168201915b5050505050908060010180546104b49061092d565b80601f01602080910402602001604051908101604052809291908181526020018280546104e09061092d565b801561052b5780601f106105025761010080835404028352916020019161052b565b820191905f5260205f20905b81548152906001019060200180831161050e57829003601f168201915b5050505050905082565b5f8054906101000a900473ffffffffffffffffffffffffffffffffffffffff1681565b5f604051905090565b5f80fd5b5f80fd5b5f819050919050565b61057b81610569565b8114610585575f80fd5b50565b5f8135905061059681610572565b92915050565b5f80fd5b5f80fd5b5f601f19601f8301169050919050565b7f4e487b71000000000000000000000000000000000000000000000000000000005f52604160045260245ffd5b6105ea826105a4565b810181811067ffffffffffffffff82111715610609576106086105b4565b5b80604052505050565b5f61061b610558565b905061062782826105e1565b919050565b5f67ffffffffffffffff821115610646576106456105b4565b5b61064f826105a4565b9050602081019050919050565b828183375f83830152505050565b5f61067c6106778461062c565b610612565b905082815260208101848484011115610698576106976105a0565b5b6106a384828561065c565b509392505050565b5f82601f8301126106bf576106be61059c565b5b81356106cf84826020860161066a565b91505092915050565b5f805f606084860312156106ef576106ee610561565b5b5f6106fc86828701610588565b935050602084013567ffffffffffffffff81111561071d5761071c610565565b5b610729868287016106ab565b925050604084013567ffffffffffffffff81111561074a57610749610565565b5b610756868287016106ab565b9150509250925092565b5f73ffffffffffffffffffffffffffffffffffffffff82169050919050565b5f61078982610760565b9050919050565b6107998161077f565b81146107a3575f80fd5b50565b5f813590506107b481610790565b92915050565b5f80604083850312156107d0576107cf610561565b5b5f6107dd858286016107a6565b92505060206107ee85828601610588565b9150509250929050565b5f81519050919050565b5f82825260208201905092915050565b8281835e5f83830152505050565b5f61082a826107f8565b6108348185610802565b9350610844818560208601610812565b61084d816105a4565b840191505092915050565b5f6040820190508181035f8301526108708185610820565b905081810360208301526108848184610820565b90509392505050565b5f602082840312156108a2576108a1610561565b5b5f6108af84828501610588565b91505092915050565b5f6020820190508181035f8301526108d08184610820565b905092915050565b6108e18161077f565b82525050565b5f6020820190506108fa5f8301846108d8565b92915050565b7f4e487b71000000000000000000000000000000000000000000000000000000005f52602260045260245ffd5b5f600282049050600182168061094457607f821691505b60208210810361095757610956610900565b5b50919050565b5f819050815f5260205f209050919050565b5f6020601f8301049050919050565b5f82821b905092915050565b5f600883026109b97fffffffffffffffffffffffffffffffffffffffffffffffffffffffffffffffff8261097e565b6109c3868361097e565b95508019841693508086168417925050509392505050565b5f819050919050565b5f6109fe6109f96109f484610569565b6109db565b610569565b9050919050565b5f819050919050565b610a17836109e4565b610a2b610a2382610a05565b84845461098a565b825550505050565b5f90565b610a3f610a33565b610a4a818484610a0e565b505050565b5b81811015610a6d57610a625f82610a37565b600181019050610a50565b5050565b601f821115610ab257610a838161095d565b610a8c8461096f565b81016020851015610a9b578190505b610aaf610aa78561096f565b830182610a4f565b50505b505050565b5f82821c905092915050565b5f610ad25f1984600802610ab7565b1980831691505092915050565b5f610aea8383610ac3565b9150826002028217905092915050565b610b03826107f8565b67ffffffffffffffff811115610b1c57610b1b6105b4565b5b610b26825461092d565b610b31828285610a71565b5f60209050601f831160018114610b62575f8415610b50578287015190505b610b5a8582610adf565b865550610bc1565b601f198416610b708661095d565b5f5b82811015610b9757848901518255600182019150602085019450602081019050610b72565b86831015610bb45784890151610bb0601f891682610ac3565b8355505b6001600288020188555050505b50505050505056fea26469706673582212200aaa4c051a3c0f905b3e8b5e35936de6ff4895c4c88bfa24b8e11348371d5f0f64736f6c634300081a0033",
					"opcodes": "PUSH1 0x80 PUSH1 0x40 MSTORE PUSH0 PUSH1 0x1 SSTORE CALLVALUE DUP1 ISZERO PUSH2 0x13 JUMPI PUSH0 DUP1 REVERT JUMPDEST POP CALLER PUSH0 DUP1 PUSH2 0x100 EXP DUP2 SLOAD DUP2 PUSH20 0xFFFFFFFFFFFFFFFFFFFFFFFFFFFFFFFFFFFFFFFF MUL NOT AND SWAP1 DUP4 PUSH20 0xFFFFFFFFFFFFFFFFFFFFFFFFFFFFFFFFFFFFFFFF AND MUL OR SWAP1 SSTORE POP PUSH1 0x40 MLOAD DUP1 PUSH1 0x40 ADD PUSH1 0x40 MSTORE DUP1 PUSH1 0x5 DUP2 MSTORE PUSH1 0x20 ADD PUSH32 0x506573686F000000000000000000000000000000000000000000000000000000 DUP2 MSTORE POP PUSH1 0x2 PUSH0 PUSH1 0x1 DUP2 MSTORE PUSH1 0x20 ADD SWAP1 DUP2 MSTORE PUSH1 0x20 ADD PUSH0 KECCAK256 SWAP1 DUP2 PUSH2 0xA7 SWAP2 SWAP1 PUSH2 0x33C JUMP JUMPDEST POP PUSH1 0x40 MLOAD DUP1 PUSH1 0x40 ADD PUSH1 0x40 MSTORE DUP1 PUSH1 0x5 DUP2 MSTORE PUSH1 0x20 ADD PUSH32 0x476F73686F000000000000000000000000000000000000000000000000000000 DUP2 MSTORE POP PUSH1 0x2 PUSH0 PUSH1 0x2 DUP2 MSTORE PUSH1 0x20 ADD SWAP1 DUP2 MSTORE PUSH1 0x20 ADD PUSH0 KECCAK256 SWAP1 DUP2 PUSH2 0xFC SWAP2 SWAP1 PUSH2 0x33C JUMP JUMPDEST POP PUSH2 0x40B JUMP JUMPDEST PUSH0 DUP2 MLOAD SWAP1 POP SWAP2 SWAP1 POP JUMP JUMPDEST PUSH32 0x4E487B7100000000000000000000000000000000000000000000000000000000 PUSH0 MSTORE PUSH1 0x41 PUSH1 0x4 MSTORE PUSH1 0x24 PUSH0 REVERT JUMPDEST PUSH32 0x4E487B7100000000000000000000000000000000000000000000000000000000 PUSH0 MSTORE PUSH1 0x22 PUSH1 0x4 MSTORE PUSH1 0x24 PUSH0 REVERT JUMPDEST PUSH0 PUSH1 0x2 DUP3 DIV SWAP1 POP PUSH1 0x1 DUP3 AND DUP1 PUSH2 0x17D JUMPI PUSH1 0x7F DUP3 AND SWAP2 POP JUMPDEST PUSH1 0x20 DUP3 LT DUP2 SUB PUSH2 0x190 JUMPI PUSH2 0x18F PUSH2 0x139 JUMP JUMPDEST JUMPDEST POP SWAP2 SWAP1 POP JUMP JUMPDEST PUSH0 DUP2 SWAP1 POP DUP2 PUSH0 MSTORE PUSH1 0x20 PUSH0 KECCAK256 SWAP1 POP SWAP2 SWAP1 POP JUMP JUMPDEST PUSH0 PUSH1 0x20 PUSH1 0x1F DUP4 ADD DIV SWAP1 POP SWAP2 SWAP1 POP JUMP JUMPDEST PUSH0 DUP3 DUP3 SHL SWAP1 POP SWAP3 SWAP2 POP POP JUMP JUMPDEST PUSH0 PUSH1 0x8 DUP4 MUL PUSH2 0x1F2 PUSH32 0xFFFFFFFFFFFFFFFFFFFFFFFFFFFFFFFFFFFFFFFFFFFFFFFFFFFFFFFFFFFFFFFF DUP3 PUSH2 0x1B7 JUMP JUMPDEST PUSH2 0x1FC DUP7 DUP4 PUSH2 0x1B7 JUMP JUMPDEST SWAP6 POP DUP1 NOT DUP5 AND SWAP4 POP DUP1 DUP7 AND DUP5 OR SWAP3 POP POP POP SWAP4 SWAP3 POP POP POP JUMP JUMPDEST PUSH0 DUP2 SWAP1 POP SWAP2 SWAP1 POP JUMP JUMPDEST PUSH0 DUP2 SWAP1 POP SWAP2 SWAP1 POP JUMP JUMPDEST PUSH0 PUSH2 0x240 PUSH2 0x23B PUSH2 0x236 DUP5 PUSH2 0x214 JUMP JUMPDEST PUSH2 0x21D JUMP JUMPDEST PUSH2 0x214 JUMP JUMPDEST SWAP1 POP SWAP2 SWAP1 POP JUMP JUMPDEST PUSH0 DUP2 SWAP1 POP SWAP2 SWAP1 POP JUMP JUMPDEST PUSH2 0x259 DUP4 PUSH2 0x226 JUMP JUMPDEST PUSH2 0x26D PUSH2 0x265 DUP3 PUSH2 0x247 JUMP JUMPDEST DUP5 DUP5 SLOAD PUSH2 0x1C3 JUMP JUMPDEST DUP3 SSTORE POP POP POP POP JUMP JUMPDEST PUSH0 SWAP1 JUMP JUMPDEST PUSH2 0x281 PUSH2 0x275 JUMP JUMPDEST PUSH2 0x28C DUP2 DUP5 DUP5 PUSH2 0x250 JUMP JUMPDEST POP POP POP JUMP JUMPDEST JUMPDEST DUP2 DUP2 LT ISZERO PUSH2 0x2AF JUMPI PUSH2 0x2A4 PUSH0 DUP3 PUSH2 0x279 JUMP JUMPDEST PUSH1 0x1 DUP2 ADD SWAP1 POP PUSH2 0x292 JUMP JUMPDEST POP POP JUMP JUMPDEST PUSH1 0x1F DUP3 GT ISZERO PUSH2 0x2F4 JUMPI PUSH2 0x2C5 DUP2 PUSH2 0x196 JUMP JUMPDEST PUSH2 0x2CE DUP5 PUSH2 0x1A8 JUMP JUMPDEST DUP2 ADD PUSH1 0x20 DUP6 LT ISZERO PUSH2 0x2DD JUMPI DUP2 SWAP1 POP JUMPDEST PUSH2 0x2F1 PUSH2 0x2E9 DUP6 PUSH2 0x1A8 JUMP JUMPDEST DUP4 ADD DUP3 PUSH2 0x291 JUMP JUMPDEST POP POP JUMPDEST POP POP POP JUMP JUMPDEST PUSH0 DUP3 DUP3 SHR SWAP1 POP SWAP3 SWAP2 POP POP JUMP JUMPDEST PUSH0 PUSH2 0x314 PUSH0 NOT DUP5 PUSH1 0x8 MUL PUSH2 0x2F9 JUMP JUMPDEST NOT DUP1 DUP4 AND SWAP2 POP POP SWAP3 SWAP2 POP POP JUMP JUMPDEST PUSH0 PUSH2 0x32C DUP4 DUP4 PUSH2 0x305 JUMP JUMPDEST SWAP2 POP DUP3 PUSH1 0x2 MUL DUP3 OR SWAP1 POP SWAP3 SWAP2 POP POP JUMP JUMPDEST PUSH2 0x345 DUP3 PUSH2 0x102 JUMP JUMPDEST PUSH8 0xFFFFFFFFFFFFFFFF DUP2 GT ISZERO PUSH2 0x35E JUMPI PUSH2 0x35D PUSH2 0x10C JUMP JUMPDEST JUMPDEST PUSH2 0x368 DUP3 SLOAD PUSH2 0x166 JUMP JUMPDEST PUSH2 0x373 DUP3 DUP3 DUP6 PUSH2 0x2B3 JUMP JUMPDEST PUSH0 PUSH1 0x20 SWAP1 POP PUSH1 0x1F DUP4 GT PUSH1 0x1 DUP2 EQ PUSH2 0x3A4 JUMPI PUSH0 DUP5 ISZERO PUSH2 0x392 JUMPI DUP3 DUP8 ADD MLOAD SWAP1 POP JUMPDEST PUSH2 0x39C DUP6 DUP3 PUSH2 0x321 JUMP JUMPDEST DUP7 SSTORE POP PUSH2 0x403 JUMP JUMPDEST PUSH1 0x1F NOT DUP5 AND PUSH2 0x3B2 DUP7 PUSH2 0x196 JUMP JUMPDEST PUSH0 JUMPDEST DUP3 DUP2 LT ISZERO PUSH2 0x3D9 JUMPI DUP5 DUP10 ADD MLOAD DUP3 SSTORE PUSH1 0x1 DUP3 ADD SWAP2 POP PUSH1 0x20 DUP6 ADD SWAP5 POP PUSH1 0x20 DUP2 ADD SWAP1 POP PUSH2 0x3B4 JUMP JUMPDEST DUP7 DUP4 LT ISZERO PUSH2 0x3F6 JUMPI DUP5 DUP10 ADD MLOAD PUSH2 0x3F2 PUSH1 0x1F DUP10 AND DUP3 PUSH2 0x305 JUMP JUMPDEST DUP4 SSTORE POP JUMPDEST PUSH1 0x1 PUSH1 0x2 DUP9 MUL ADD DUP9 SSTORE POP POP POP JUMPDEST POP POP POP POP POP POP JUMP JUMPDEST PUSH2 0xBFF DUP1 PUSH2 0x418 PUSH0 CODECOPY PUSH0 RETURN INVALID PUSH1 0x80 PUSH1 0x40 MSTORE CALLVALUE DUP1 ISZERO PUSH2 0xF JUMPI PUSH0 DUP1 REVERT JUMPDEST POP PUSH1 0x4 CALLDATASIZE LT PUSH2 0x60 JUMPI PUSH0 CALLDATALOAD PUSH1 0xE0 SHR DUP1 PUSH4 0x28414F2 EQ PUSH2 0x64 JUMPI DUP1 PUSH4 0x27D3553F EQ PUSH2 0x80 JUMPI DUP1 PUSH4 0x4622AB03 EQ PUSH2 0xB1 JUMPI DUP1 PUSH4 0x493EC707 EQ PUSH2 0xE1 JUMPI DUP1 PUSH4 0x68744046 EQ PUSH2 0xFD JUMPI DUP1 PUSH4 0x8DA5CB5B EQ PUSH2 0x12E JUMPI JUMPDEST PUSH0 DUP1 REVERT JUMPDEST PUSH2 0x7E PUSH1 0x4 DUP1 CALLDATASIZE SUB DUP2 ADD SWAP1 PUSH2 0x79 SWAP2 SWAP1 PUSH2 0x6D8 JUMP JUMPDEST PUSH2 0x14C JUMP JUMPDEST STOP JUMPDEST PUSH2 0x9A PUSH1 0x4 DUP1 CALLDATASIZE SUB DUP2 ADD SWAP1 PUSH2 0x95 SWAP2 SWAP1 PUSH2 0x7BA JUMP JUMPDEST PUSH2 0x1A4 JUMP JUMPDEST PUSH1 0x40 MLOAD PUSH2 0xA8 SWAP3 SWAP2 SWAP1 PUSH2 0x858 JUMP JUMPDEST PUSH1 0x40 MLOAD DUP1 SWAP2 SUB SWAP1 RETURN JUMPDEST PUSH2 0xCB PUSH1 0x4 DUP1 CALLDATASIZE SUB DUP2 ADD SWAP1 PUSH2 0xC6 SWAP2 SWAP1 PUSH2 0x88D JUMP JUMPDEST PUSH2 0x2DB JUMP JUMPDEST PUSH1 0x40 MLOAD PUSH2 0xD8 SWAP2 SWAP1 PUSH2 0x8B8 JUMP JUMPDEST PUSH1 0x40 MLOAD DUP1 SWAP2 SUB SWAP1 RETURN JUMPDEST PUSH2 0xFB PUSH1 0x4 DUP1 CALLDATASIZE SUB DUP2 ADD SWAP1 PUSH2 0xF6 SWAP2 SWAP1 PUSH2 0x6D8 JUMP JUMPDEST PUSH2 0x376 JUMP JUMPDEST STOP JUMPDEST PUSH2 0x117 PUSH1 0x4 DUP1 CALLDATASIZE SUB DUP2 ADD SWAP1 PUSH2 0x112 SWAP2 SWAP1 PUSH2 0x88D JUMP JUMPDEST PUSH2 0x409 JUMP JUMPDEST PUSH1 0x40 MLOAD PUSH2 0x125 SWAP3 SWAP2 SWAP1 PUSH2 0x858 JUMP JUMPDEST PUSH1 0x40 MLOAD DUP1 SWAP2 SUB SWAP1 RETURN JUMPDEST PUSH2 0x136 PUSH2 0x535 JUMP JUMPDEST PUSH1 0x40 MLOAD PUSH2 0x143 SWAP2 SWAP1 PUSH2 0x8E7 JUMP JUMPDEST PUSH1 0x40 MLOAD DUP1 SWAP2 SUB SWAP1 RETURN JUMPDEST PUSH1 0x40 MLOAD DUP1 PUSH1 0x40 ADD PUSH1 0x40 MSTORE DUP1 DUP4 DUP2 MSTORE PUSH1 0x20 ADD DUP3 DUP2 MSTORE POP PUSH1 0x3 PUSH0 DUP6 DUP2 MSTORE PUSH1 0x20 ADD SWAP1 DUP2 MSTORE PUSH1 0x20 ADD PUSH0 KECCAK256 PUSH0 DUP3 ADD MLOAD DUP2 PUSH0 ADD SWAP1 DUP2 PUSH2 0x185 SWAP2 SWAP1 PUSH2 0xAFA JUMP JUMPDEST POP PUSH1 0x20 DUP3 ADD MLOAD DUP2 PUSH1 0x1 ADD SWAP1 DUP2 PUSH2 0x19B SWAP2 SWAP1 PUSH2 0xAFA JUMP JUMPDEST POP SWAP1 POP POP POP POP POP JUMP JUMPDEST PUSH1 0x4 PUSH1 0x20 MSTORE DUP2 PUSH0 MSTORE PUSH1 0x40 PUSH0 KECCAK256 PUSH1 0x20 MSTORE DUP1 PUSH0 MSTORE PUSH1 0x40 PUSH0 KECCAK256 PUSH0 SWAP2 POP SWAP2 POP POP DUP1 PUSH0 ADD DUP1 SLOAD PUSH2 0x1CE SWAP1 PUSH2 0x92D JUMP JUMPDEST DUP1 PUSH1 0x1F ADD PUSH1 0x20 DUP1 SWAP2 DIV MUL PUSH1 0x20 ADD PUSH1 0x40 MLOAD SWAP1 DUP2 ADD PUSH1 0x40 MSTORE DUP1 SWAP3 SWAP2 SWAP1 DUP2 DUP2 MSTORE PUSH1 0x20 ADD DUP3 DUP1 SLOAD PUSH2 0x1FA SWAP1 PUSH2 0x92D JUMP JUMPDEST DUP1 ISZERO PUSH2 0x245 JUMPI DUP1 PUSH1 0x1F LT PUSH2 0x21C JUMPI PUSH2 0x100 DUP1 DUP4 SLOAD DIV MUL DUP4 MSTORE SWAP2 PUSH1 0x20 ADD SWAP2 PUSH2 0x245 JUMP JUMPDEST DUP3 ADD SWAP2 SWAP1 PUSH0 MSTORE PUSH1 0x20 PUSH0 KECCAK256 SWAP1 JUMPDEST DUP2 SLOAD DUP2 MSTORE SWAP1 PUSH1 0x1 ADD SWAP1 PUSH1 0x20 ADD DUP1 DUP4 GT PUSH2 0x228 JUMPI DUP3 SWAP1 SUB PUSH1 0x1F AND DUP3 ADD SWAP2 JUMPDEST POP POP POP POP POP SWAP1 DUP1 PUSH1 0x1 ADD DUP1 SLOAD PUSH2 0x25A SWAP1 PUSH2 0x92D JUMP JUMPDEST DUP1 PUSH1 0x1F ADD PUSH1 0x20 DUP1 SWAP2 DIV MUL PUSH1 0x20 ADD PUSH1 0x40 MLOAD SWAP1 DUP2 ADD PUSH1 0x40 MSTORE DUP1 SWAP3 SWAP2 SWAP1 DUP2 DUP2 MSTORE PUSH1 0x20 ADD DUP3 DUP1 SLOAD PUSH2 0x286 SWAP1 PUSH2 0x92D JUMP JUMPDEST DUP1 ISZERO PUSH2 0x2D1 JUMPI DUP1 PUSH1 0x1F LT PUSH2 0x2A8 JUMPI PUSH2 0x100 DUP1 DUP4 SLOAD DIV MUL DUP4 MSTORE SWAP2 PUSH1 0x20 ADD SWAP2 PUSH2 0x2D1 JUMP JUMPDEST DUP3 ADD SWAP2 SWAP1 PUSH0 MSTORE PUSH1 0x20 PUSH0 KECCAK256 SWAP1 JUMPDEST DUP2 SLOAD DUP2 MSTORE SWAP1 PUSH1 0x1 ADD SWAP1 PUSH1 0x20 ADD DUP1 DUP4 GT PUSH2 0x2B4 JUMPI DUP3 SWAP1 SUB PUSH1 0x1F AND DUP3 ADD SWAP2 JUMPDEST POP POP POP POP POP SWAP1 POP DUP3 JUMP JUMPDEST PUSH1 0x2 PUSH1 0x20 MSTORE DUP1 PUSH0 MSTORE PUSH1 0x40 PUSH0 KECCAK256 PUSH0 SWAP2 POP SWAP1 POP DUP1 SLOAD PUSH2 0x2F7 SWAP1 PUSH2 0x92D JUMP JUMPDEST DUP1 PUSH1 0x1F ADD PUSH1 0x20 DUP1 SWAP2 DIV MUL PUSH1 0x20 ADD PUSH1 0x40 MLOAD SWAP1 DUP2 ADD PUSH1 0x40 MSTORE DUP1 SWAP3 SWAP2 SWAP1 DUP2 DUP2 MSTORE PUSH1 0x20 ADD DUP3 DUP1 SLOAD PUSH2 0x323 SWAP1 PUSH2 0x92D JUMP JUMPDEST DUP1 ISZERO PUSH2 0x36E JUMPI DUP1 PUSH1 0x1F LT PUSH2 0x345 JUMPI PUSH2 0x100 DUP1 DUP4 SLOAD DIV MUL DUP4 MSTORE SWAP2 PUSH1 0x20 ADD SWAP2 PUSH2 0x36E JUMP JUMPDEST DUP3 ADD SWAP2 SWAP1 PUSH0 MSTORE PUSH1 0x20 PUSH0 KECCAK256 SWAP1 JUMPDEST DUP2 SLOAD DUP2 MSTORE SWAP1 PUSH1 0x1 ADD SWAP1 PUSH1 0x20 ADD DUP1 DUP4 GT PUSH2 0x351 JUMPI DUP3 SWAP1 SUB PUSH1 0x1F AND DUP3 ADD SWAP2 JUMPDEST POP POP POP POP POP DUP2 JUMP JUMPDEST PUSH1 0x40 MLOAD DUP1 PUSH1 0x40 ADD PUSH1 0x40 MSTORE DUP1 DUP4 DUP2 MSTORE PUSH1 0x20 ADD DUP3 DUP2 MSTORE POP PUSH1 0x4 PUSH0 CALLER PUSH20 0xFFFFFFFFFFFFFFFFFFFFFFFFFFFFFFFFFFFFFFFF AND PUSH20 0xFFFFFFFFFFFFFFFFFFFFFFFFFFFFFFFFFFFFFFFF AND DUP2 MSTORE PUSH1 0x20 ADD SWAP1 DUP2 MSTORE PUSH1 0x20 ADD PUSH0 KECCAK256 PUSH0 DUP6 DUP2 MSTORE PUSH1 0x20 ADD SWAP1 DUP2 MSTORE PUSH1 0x20 ADD PUSH0 KECCAK256 PUSH0 DUP3 ADD MLOAD DUP2 PUSH0 ADD SWAP1 DUP2 PUSH2 0x3EA SWAP2 SWAP1 PUSH2 0xAFA JUMP JUMPDEST POP PUSH1 0x20 DUP3 ADD MLOAD DUP2 PUSH1 0x1 ADD SWAP1 DUP2 PUSH2 0x400 SWAP2 SWAP1 PUSH2 0xAFA JUMP JUMPDEST POP SWAP1 POP POP POP POP POP JUMP JUMPDEST PUSH1 0x3 PUSH1 0x20 MSTORE DUP1 PUSH0 MSTORE PUSH1 0x40 PUSH0 KECCAK256 PUSH0 SWAP2 POP SWAP1 POP DUP1 PUSH0 ADD DUP1 SLOAD PUSH2 0x428 SWAP1 PUSH2 0x92D JUMP JUMPDEST DUP1 PUSH1 0x1F ADD PUSH1 0x20 DUP1 SWAP2 DIV MUL PUSH1 0x20 ADD PUSH1 0x40 MLOAD SWAP1 DUP2 ADD PUSH1 0x40 MSTORE DUP1 SWAP3 SWAP2 SWAP1 DUP2 DUP2 MSTORE PUSH1 0x20 ADD DUP3 DUP1 SLOAD PUSH2 0x454 SWAP1 PUSH2 0x92D JUMP JUMPDEST DUP1 ISZERO PUSH2 0x49F JUMPI DUP1 PUSH1 0x1F LT PUSH2 0x476 JUMPI PUSH2 0x100 DUP1 DUP4 SLOAD DIV MUL DUP4 MSTORE SWAP2 PUSH1 0x20 ADD SWAP2 PUSH2 0x49F JUMP JUMPDEST DUP3 ADD SWAP2 SWAP1 PUSH0 MSTORE PUSH1 0x20 PUSH0 KECCAK256 SWAP1 JUMPDEST DUP2 SLOAD DUP2 MSTORE SWAP1 PUSH1 0x1 ADD SWAP1 PUSH1 0x20 ADD DUP1 DUP4 GT PUSH2 0x482 JUMPI DUP3 SWAP1 SUB PUSH1 0x1F AND DUP3 ADD SWAP2 JUMPDEST POP POP POP POP POP SWAP1 DUP1 PUSH1 0x1 ADD DUP1 SLOAD PUSH2 0x4B4 SWAP1 PUSH2 0x92D JUMP JUMPDEST DUP1 PUSH1 0x1F ADD PUSH1 0x20 DUP1 SWAP2 DIV MUL PUSH1 0x20 ADD PUSH1 0x40 MLOAD SWAP1 DUP2 ADD PUSH1 0x40 MSTORE DUP1 SWAP3 SWAP2 SWAP1 DUP2 DUP2 MSTORE PUSH1 0x20 ADD DUP3 DUP1 SLOAD PUSH2 0x4E0 SWAP1 PUSH2 0x92D JUMP JUMPDEST DUP1 ISZERO PUSH2 0x52B JUMPI DUP1 PUSH1 0x1F LT PUSH2 0x502 JUMPI PUSH2 0x100 DUP1 DUP4 SLOAD DIV MUL DUP4 MSTORE SWAP2 PUSH1 0x20 ADD SWAP2 PUSH2 0x52B JUMP JUMPDEST DUP3 ADD SWAP2 SWAP1 PUSH0 MSTORE PUSH1 0x20 PUSH0 KECCAK256 SWAP1 JUMPDEST DUP2 SLOAD DUP2 MSTORE SWAP1 PUSH1 0x1 ADD SWAP1 PUSH1 0x20 ADD DUP1 DUP4 GT PUSH2 0x50E JUMPI DUP3 SWAP1 SUB PUSH1 0x1F AND DUP3 ADD SWAP2 JUMPDEST POP POP POP POP POP SWAP1 POP DUP3 JUMP JUMPDEST PUSH0 DUP1 SLOAD SWAP1 PUSH2 0x100 EXP SWAP1 DIV PUSH20 0xFFFFFFFFFFFFFFFFFFFFFFFFFFFFFFFFFFFFFFFF AND DUP2 JUMP JUMPDEST PUSH0 PUSH1 0x40 MLOAD SWAP1 POP SWAP1 JUMP JUMPDEST PUSH0 DUP1 REVERT JUMPDEST PUSH0 DUP1 REVERT JUMPDEST PUSH0 DUP2 SWAP1 POP SWAP2 SWAP1 POP JUMP JUMPDEST PUSH2 0x57B DUP2 PUSH2 0x569 JUMP JUMPDEST DUP2 EQ PUSH2 0x585 JUMPI PUSH0 DUP1 REVERT JUMPDEST POP JUMP JUMPDEST PUSH0 DUP2 CALLDATALOAD SWAP1 POP PUSH2 0x596 DUP2 PUSH2 0x572 JUMP JUMPDEST SWAP3 SWAP2 POP POP JUMP JUMPDEST PUSH0 DUP1 REVERT JUMPDEST PUSH0 DUP1 REVERT JUMPDEST PUSH0 PUSH1 0x1F NOT PUSH1 0x1F DUP4 ADD AND SWAP1 POP SWAP2 SWAP1 POP JUMP JUMPDEST PUSH32 0x4E487B7100000000000000000000000000000000000000000000000000000000 PUSH0 MSTORE PUSH1 0x41 PUSH1 0x4 MSTORE PUSH1 0x24 PUSH0 REVERT JUMPDEST PUSH2 0x5EA DUP3 PUSH2 0x5A4 JUMP JUMPDEST DUP2 ADD DUP2 DUP2 LT PUSH8 0xFFFFFFFFFFFFFFFF DUP3 GT OR ISZERO PUSH2 0x609 JUMPI PUSH2 0x608 PUSH2 0x5B4 JUMP JUMPDEST JUMPDEST DUP1 PUSH1 0x40 MSTORE POP POP POP JUMP JUMPDEST PUSH0 PUSH2 0x61B PUSH2 0x558 JUMP JUMPDEST SWAP1 POP PUSH2 0x627 DUP3 DUP3 PUSH2 0x5E1 JUMP JUMPDEST SWAP2 SWAP1 POP JUMP JUMPDEST PUSH0 PUSH8 0xFFFFFFFFFFFFFFFF DUP3 GT ISZERO PUSH2 0x646 JUMPI PUSH2 0x645 PUSH2 0x5B4 JUMP JUMPDEST JUMPDEST PUSH2 0x64F DUP3 PUSH2 0x5A4 JUMP JUMPDEST SWAP1 POP PUSH1 0x20 DUP2 ADD SWAP1 POP SWAP2 SWAP1 POP JUMP JUMPDEST DUP3 DUP2 DUP4 CALLDATACOPY PUSH0 DUP4 DUP4 ADD MSTORE POP POP POP JUMP JUMPDEST PUSH0 PUSH2 0x67C PUSH2 0x677 DUP5 PUSH2 0x62C JUMP JUMPDEST PUSH2 0x612 JUMP JUMPDEST SWAP1 POP DUP3 DUP2 MSTORE PUSH1 0x20 DUP2 ADD DUP5 DUP5 DUP5 ADD GT ISZERO PUSH2 0x698 JUMPI PUSH2 0x697 PUSH2 0x5A0 JUMP JUMPDEST JUMPDEST PUSH2 0x6A3 DUP5 DUP3 DUP6 PUSH2 0x65C JUMP JUMPDEST POP SWAP4 SWAP3 POP POP POP JUMP JUMPDEST PUSH0 DUP3 PUSH1 0x1F DUP4 ADD SLT PUSH2 0x6BF JUMPI PUSH2 0x6BE PUSH2 0x59C JUMP JUMPDEST JUMPDEST DUP2 CALLDATALOAD PUSH2 0x6CF DUP5 DUP3 PUSH1 0x20 DUP7 ADD PUSH2 0x66A JUMP JUMPDEST SWAP2 POP POP SWAP3 SWAP2 POP POP JUMP JUMPDEST PUSH0 DUP1 PUSH0 PUSH1 0x60 DUP5 DUP7 SUB SLT ISZERO PUSH2 0x6EF JUMPI PUSH2 0x6EE PUSH2 0x561 JUMP JUMPDEST JUMPDEST PUSH0 PUSH2 0x6FC DUP7 DUP3 DUP8 ADD PUSH2 0x588 JUMP JUMPDEST SWAP4 POP POP PUSH1 0x20 DUP5 ADD CALLDATALOAD PUSH8 0xFFFFFFFFFFFFFFFF DUP2 GT ISZERO PUSH2 0x71D JUMPI PUSH2 0x71C PUSH2 0x565 JUMP JUMPDEST JUMPDEST PUSH2 0x729 DUP7 DUP3 DUP8 ADD PUSH2 0x6AB JUMP JUMPDEST SWAP3 POP POP PUSH1 0x40 DUP5 ADD CALLDATALOAD PUSH8 0xFFFFFFFFFFFFFFFF DUP2 GT ISZERO PUSH2 0x74A JUMPI PUSH2 0x749 PUSH2 0x565 JUMP JUMPDEST JUMPDEST PUSH2 0x756 DUP7 DUP3 DUP8 ADD PUSH2 0x6AB JUMP JUMPDEST SWAP2 POP POP SWAP3 POP SWAP3 POP SWAP3 JUMP JUMPDEST PUSH0 PUSH20 0xFFFFFFFFFFFFFFFFFFFFFFFFFFFFFFFFFFFFFFFF DUP3 AND SWAP1 POP SWAP2 SWAP1 POP JUMP JUMPDEST PUSH0 PUSH2 0x789 DUP3 PUSH2 0x760 JUMP JUMPDEST SWAP1 POP SWAP2 SWAP1 POP JUMP JUMPDEST PUSH2 0x799 DUP2 PUSH2 0x77F JUMP JUMPDEST DUP2 EQ PUSH2 0x7A3 JUMPI PUSH0 DUP1 REVERT JUMPDEST POP JUMP JUMPDEST PUSH0 DUP2 CALLDATALOAD SWAP1 POP PUSH2 0x7B4 DUP2 PUSH2 0x790 JUMP JUMPDEST SWAP3 SWAP2 POP POP JUMP JUMPDEST PUSH0 DUP1 PUSH1 0x40 DUP4 DUP6 SUB SLT ISZERO PUSH2 0x7D0 JUMPI PUSH2 0x7CF PUSH2 0x561 JUMP JUMPDEST JUMPDEST PUSH0 PUSH2 0x7DD DUP6 DUP3 DUP7 ADD PUSH2 0x7A6 JUMP JUMPDEST SWAP3 POP POP PUSH1 0x20 PUSH2 0x7EE DUP6 DUP3 DUP7 ADD PUSH2 0x588 JUMP JUMPDEST SWAP2 POP POP SWAP3 POP SWAP3 SWAP1 POP JUMP JUMPDEST PUSH0 DUP2 MLOAD SWAP1 POP SWAP2 SWAP1 POP JUMP JUMPDEST PUSH0 DUP3 DUP3 MSTORE PUSH1 0x20 DUP3 ADD SWAP1 POP SWAP3 SWAP2 POP POP JUMP JUMPDEST DUP3 DUP2 DUP4 MCOPY PUSH0 DUP4 DUP4 ADD MSTORE POP POP POP JUMP JUMPDEST PUSH0 PUSH2 0x82A DUP3 PUSH2 0x7F8 JUMP JUMPDEST PUSH2 0x834 DUP2 DUP6 PUSH2 0x802 JUMP JUMPDEST SWAP4 POP PUSH2 0x844 DUP2 DUP6 PUSH1 0x20 DUP7 ADD PUSH2 0x812 JUMP JUMPDEST PUSH2 0x84D DUP2 PUSH2 0x5A4 JUMP JUMPDEST DUP5 ADD SWAP2 POP POP SWAP3 SWAP2 POP POP JUMP JUMPDEST PUSH0 PUSH1 0x40 DUP3 ADD SWAP1 POP DUP2 DUP2 SUB PUSH0 DUP4 ADD MSTORE PUSH2 0x870 DUP2 DUP6 PUSH2 0x820 JUMP JUMPDEST SWAP1 POP DUP2 DUP2 SUB PUSH1 0x20 DUP4 ADD MSTORE PUSH2 0x884 DUP2 DUP5 PUSH2 0x820 JUMP JUMPDEST SWAP1 POP SWAP4 SWAP3 POP POP POP JUMP JUMPDEST PUSH0 PUSH1 0x20 DUP3 DUP5 SUB SLT ISZERO PUSH2 0x8A2 JUMPI PUSH2 0x8A1 PUSH2 0x561 JUMP JUMPDEST JUMPDEST PUSH0 PUSH2 0x8AF DUP5 DUP3 DUP6 ADD PUSH2 0x588 JUMP JUMPDEST SWAP2 POP POP SWAP3 SWAP2 POP POP JUMP JUMPDEST PUSH0 PUSH1 0x20 DUP3 ADD SWAP1 POP DUP2 DUP2 SUB PUSH0 DUP4 ADD MSTORE PUSH2 0x8D0 DUP2 DUP5 PUSH2 0x820 JUMP JUMPDEST SWAP1 POP SWAP3 SWAP2 POP POP JUMP JUMPDEST PUSH2 0x8E1 DUP2 PUSH2 0x77F JUMP JUMPDEST DUP3 MSTORE POP POP JUMP JUMPDEST PUSH0 PUSH1 0x20 DUP3 ADD SWAP1 POP PUSH2 0x8FA PUSH0 DUP4 ADD DUP5 PUSH2 0x8D8 JUMP JUMPDEST SWAP3 SWAP2 POP POP JUMP JUMPDEST PUSH32 0x4E487B7100000000000000000000000000000000000000000000000000000000 PUSH0 MSTORE PUSH1 0x22 PUSH1 0x4 MSTORE PUSH1 0x24 PUSH0 REVERT JUMPDEST PUSH0 PUSH1 0x2 DUP3 DIV SWAP1 POP PUSH1 0x1 DUP3 AND DUP1 PUSH2 0x944 JUMPI PUSH1 0x7F DUP3 AND SWAP2 POP JUMPDEST PUSH1 0x20 DUP3 LT DUP2 SUB PUSH2 0x957 JUMPI PUSH2 0x956 PUSH2 0x900 JUMP JUMPDEST JUMPDEST POP SWAP2 SWAP1 POP JUMP JUMPDEST PUSH0 DUP2 SWAP1 POP DUP2 PUSH0 MSTORE PUSH1 0x20 PUSH0 KECCAK256 SWAP1 POP SWAP2 SWAP1 POP JUMP JUMPDEST PUSH0 PUSH1 0x20 PUSH1 0x1F DUP4 ADD DIV SWAP1 POP SWAP2 SWAP1 POP JUMP JUMPDEST PUSH0 DUP3 DUP3 SHL SWAP1 POP SWAP3 SWAP2 POP POP JUMP JUMPDEST PUSH0 PUSH1 0x8 DUP4 MUL PUSH2 0x9B9 PUSH32 0xFFFFFFFFFFFFFFFFFFFFFFFFFFFFFFFFFFFFFFFFFFFFFFFFFFFFFFFFFFFFFFFF DUP3 PUSH2 0x97E JUMP JUMPDEST PUSH2 0x9C3 DUP7 DUP4 PUSH2 0x97E JUMP JUMPDEST SWAP6 POP DUP1 NOT DUP5 AND SWAP4 POP DUP1 DUP7 AND DUP5 OR SWAP3 POP POP POP SWAP4 SWAP3 POP POP POP JUMP JUMPDEST PUSH0 DUP2 SWAP1 POP SWAP2 SWAP1 POP JUMP JUMPDEST PUSH0 PUSH2 0x9FE PUSH2 0x9F9 PUSH2 0x9F4 DUP5 PUSH2 0x569 JUMP JUMPDEST PUSH2 0x9DB JUMP JUMPDEST PUSH2 0x569 JUMP JUMPDEST SWAP1 POP SWAP2 SWAP1 POP JUMP JUMPDEST PUSH0 DUP2 SWAP1 POP SWAP2 SWAP1 POP JUMP JUMPDEST PUSH2 0xA17 DUP4 PUSH2 0x9E4 JUMP JUMPDEST PUSH2 0xA2B PUSH2 0xA23 DUP3 PUSH2 0xA05 JUMP JUMPDEST DUP5 DUP5 SLOAD PUSH2 0x98A JUMP JUMPDEST DUP3 SSTORE POP POP POP POP JUMP JUMPDEST PUSH0 SWAP1 JUMP JUMPDEST PUSH2 0xA3F PUSH2 0xA33 JUMP JUMPDEST PUSH2 0xA4A DUP2 DUP5 DUP5 PUSH2 0xA0E JUMP JUMPDEST POP POP POP JUMP JUMPDEST JUMPDEST DUP2 DUP2 LT ISZERO PUSH2 0xA6D JUMPI PUSH2 0xA62 PUSH0 DUP3 PUSH2 0xA37 JUMP JUMPDEST PUSH1 0x1 DUP2 ADD SWAP1 POP PUSH2 0xA50 JUMP JUMPDEST POP POP JUMP JUMPDEST PUSH1 0x1F DUP3 GT ISZERO PUSH2 0xAB2 JUMPI PUSH2 0xA83 DUP2 PUSH2 0x95D JUMP JUMPDEST PUSH2 0xA8C DUP5 PUSH2 0x96F JUMP JUMPDEST DUP2 ADD PUSH1 0x20 DUP6 LT ISZERO PUSH2 0xA9B JUMPI DUP2 SWAP1 POP JUMPDEST PUSH2 0xAAF PUSH2 0xAA7 DUP6 PUSH2 0x96F JUMP JUMPDEST DUP4 ADD DUP3 PUSH2 0xA4F JUMP JUMPDEST POP POP JUMPDEST POP POP POP JUMP JUMPDEST PUSH0 DUP3 DUP3 SHR SWAP1 POP SWAP3 SWAP2 POP POP JUMP JUMPDEST PUSH0 PUSH2 0xAD2 PUSH0 NOT DUP5 PUSH1 0x8 MUL PUSH2 0xAB7 JUMP JUMPDEST NOT DUP1 DUP4 AND SWAP2 POP POP SWAP3 SWAP2 POP POP JUMP JUMPDEST PUSH0 PUSH2 0xAEA DUP4 DUP4 PUSH2 0xAC3 JUMP JUMPDEST SWAP2 POP DUP3 PUSH1 0x2 MUL DUP3 OR SWAP1 POP SWAP3 SWAP2 POP POP JUMP JUMPDEST PUSH2 0xB03 DUP3 PUSH2 0x7F8 JUMP JUMPDEST PUSH8 0xFFFFFFFFFFFFFFFF DUP2 GT ISZERO PUSH2 0xB1C JUMPI PUSH2 0xB1B PUSH2 0x5B4 JUMP JUMPDEST JUMPDEST PUSH2 0xB26 DUP3 SLOAD PUSH2 0x92D JUMP JUMPDEST PUSH2 0xB31 DUP3 DUP3 DUP6 PUSH2 0xA71 JUMP JUMPDEST PUSH0 PUSH1 0x20 SWAP1 POP PUSH1 0x1F DUP4 GT PUSH1 0x1 DUP2 EQ PUSH2 0xB62 JUMPI PUSH0 DUP5 ISZERO PUSH2 0xB50 JUMPI DUP3 DUP8 ADD MLOAD SWAP1 POP JUMPDEST PUSH2 0xB5A DUP6 DUP3 PUSH2 0xADF JUMP JUMPDEST DUP7 SSTORE POP PUSH2 0xBC1 JUMP JUMPDEST PUSH1 0x1F NOT DUP5 AND PUSH2 0xB70 DUP7 PUSH2 0x95D JUMP JUMPDEST PUSH0 JUMPDEST DUP3 DUP2 LT ISZERO PUSH2 0xB97 JUMPI DUP5 DUP10 ADD MLOAD DUP3 SSTORE PUSH1 0x1 DUP3 ADD SWAP2 POP PUSH1 0x20 DUP6 ADD SWAP5 POP PUSH1 0x20 DUP2 ADD SWAP1 POP PUSH2 0xB72 JUMP JUMPDEST DUP7 DUP4 LT ISZERO PUSH2 0xBB4 JUMPI DUP5 DUP10 ADD MLOAD PUSH2 0xBB0 PUSH1 0x1F DUP10 AND DUP3 PUSH2 0xAC3 JUMP JUMPDEST DUP4 SSTORE POP JUMPDEST PUSH1 0x1 PUSH1 0x2 DUP9 MUL ADD DUP9 SSTORE POP POP POP JUMPDEST POP POP POP POP POP POP JUMP INVALID LOG2 PUSH5 0x6970667358 0x22 SLT KECCAK256 EXP 0xAA 0x4C SDIV BYTE EXTCODECOPY 0xF SWAP1 JUMPDEST RETURNDATACOPY DUP12 MCOPY CALLDATALOAD SWAP4 PUSH14 0xE6FF4895C4C88BFA24B8E1134837 SAR PUSH0 0xF PUSH5 0x736F6C6343 STOP ADDMOD BYTE STOP CALLER "
				},
				"gasEstimates": {
					"creation": {
						"codeDepositCost": "614200",
						"executionCost": "infinite",
						"totalCost": "infinite"
					},
					"external": {
						"addBook(uint256,string,string)": "infinite",
						"addMyBook(uint256,string,string)": "infinite",
						"books(uint256)": "infinite",
						"myBooks(address,uint256)": "infinite",
						"names(uint256)": "infinite",
						"owner()": "2593"
					}
				},
				"methodIdentifiers": {
					"addBook(uint256,string,string)": "028414f2",
					"addMyBook(uint256,string,string)": "493ec707",
					"books(uint256)": "68744046",
					"myBooks(address,uint256)": "27d3553f",
					"names(uint256)": "4622ab03",
					"owner()": "8da5cb5b"
				}
			},
			"storageLayout": {
				"storage": [
					{
						"astId": 3,
						"contract": "contracts/Counter.sol:MyContract",
						"label": "owner",
						"offset": 0,
						"slot": "0",
						"type": "t_address"
					},
					{
						"astId": 6,
						"contract": "contracts/Counter.sol:MyContract",
						"label": "count",
						"offset": 0,
						"slot": "1",
						"type": "t_uint256"
					},
					{
						"astId": 10,
						"contract": "contracts/Counter.sol:MyContract",
						"label": "names",
						"offset": 0,
						"slot": "2",
						"type": "t_mapping(t_uint256,t_string_storage)"
					},
					{
						"astId": 15,
						"contract": "contracts/Counter.sol:MyContract",
						"label": "books",
						"offset": 0,
						"slot": "3",
						"type": "t_mapping(t_uint256,t_struct(Book)27_storage)"
					},
					{
						"astId": 22,
						"contract": "contracts/Counter.sol:MyContract",
						"label": "myBooks",
						"offset": 0,
						"slot": "4",
						"type": "t_mapping(t_address,t_mapping(t_uint256,t_struct(Book)27_storage))"
					}
				],
				"types": {
					"t_address": {
						"encoding": "inplace",
						"label": "address",
						"numberOfBytes": "20"
					},
					"t_mapping(t_address,t_mapping(t_uint256,t_struct(Book)27_storage))": {
						"encoding": "mapping",
						"key": "t_address",
						"label": "mapping(address => mapping(uint256 => struct MyContract.Book))",
						"numberOfBytes": "32",
						"value": "t_mapping(t_uint256,t_struct(Book)27_storage)"
					},
					"t_mapping(t_uint256,t_string_storage)": {
						"encoding": "mapping",
						"key": "t_uint256",
						"label": "mapping(uint256 => string)",
						"numberOfBytes": "32",
						"value": "t_string_storage"
					},
					"t_mapping(t_uint256,t_struct(Book)27_storage)": {
						"encoding": "mapping",
						"key": "t_uint256",
						"label": "mapping(uint256 => struct MyContract.Book)",
						"numberOfBytes": "32",
						"value": "t_struct(Book)27_storage"
					},
					"t_string_storage": {
						"encoding": "bytes",
						"label": "string",
						"numberOfBytes": "32"
					},
					"t_struct(Book)27_storage": {
						"encoding": "inplace",
						"label": "struct MyContract.Book",
						"members": [
							{
								"astId": 24,
								"contract": "contracts/Counter.sol:MyContract",
								"label": "title",
								"offset": 0,
								"slot": "0",
								"type": "t_string_storage"
							},
							{
								"astId": 26,
								"contract": "contracts/Counter.sol:MyContract",
								"label": "author",
								"offset": 0,
								"slot": "1",
								"type": "t_string_storage"
							}
						],
						"numberOfBytes": "64"
					},
					"t_uint256": {
						"encoding": "inplace",
						"label": "uint256",
						"numberOfBytes": "32"
					}
				}
			},
			"userdoc": {
				"kind": "user",
				"methods": {},
				"version": 1
			}
		}
	}
}